{
  "_format": "hh-sol-artifact-1",
  "contractName": "promptNFT",
  "sourceName": "contracts/promptNFT.sol",
  "abi": [
    {
      "inputs": [
        {
          "internalType": "string",
          "name": "name_",
          "type": "string"
        },
        {
          "internalType": "string",
          "name": "symbol_",
          "type": "string"
        },
        {
          "internalType": "address payable",
          "name": "rentMarketContractAddress_",
          "type": "address"
        }
      ],
      "stateMutability": "nonpayable",
      "type": "constructor"
    },
    {
      "anonymous": false,
      "inputs": [
        {
          "indexed": true,
          "internalType": "address",
          "name": "owner",
          "type": "address"
        },
        {
          "indexed": true,
          "internalType": "address",
          "name": "approved",
          "type": "address"
        },
        {
          "indexed": true,
          "internalType": "uint256",
          "name": "tokenId",
          "type": "uint256"
        }
      ],
      "name": "Approval",
      "type": "event"
    },
    {
      "anonymous": false,
      "inputs": [
        {
          "indexed": true,
          "internalType": "address",
          "name": "owner",
          "type": "address"
        },
        {
          "indexed": true,
          "internalType": "address",
          "name": "operator",
          "type": "address"
        },
        {
          "indexed": false,
          "internalType": "bool",
          "name": "approved",
          "type": "bool"
        }
      ],
      "name": "ApprovalForAll",
      "type": "event"
    },
    {
      "anonymous": false,
      "inputs": [
        {
          "indexed": true,
          "internalType": "address",
          "name": "previousOwner",
          "type": "address"
        },
        {
          "indexed": true,
          "internalType": "address",
          "name": "newOwner",
          "type": "address"
        }
      ],
      "name": "OwnershipTransferred",
      "type": "event"
    },
    {
      "anonymous": false,
      "inputs": [
        {
          "indexed": false,
          "internalType": "address",
          "name": "account",
          "type": "address"
        }
      ],
      "name": "Paused",
      "type": "event"
    },
    {
      "anonymous": false,
      "inputs": [
        {
          "indexed": true,
          "internalType": "address",
          "name": "from",
          "type": "address"
        },
        {
          "indexed": true,
          "internalType": "address",
          "name": "to",
          "type": "address"
        },
        {
          "indexed": true,
          "internalType": "uint256",
          "name": "tokenId",
          "type": "uint256"
        }
      ],
      "name": "Transfer",
      "type": "event"
    },
    {
      "anonymous": false,
      "inputs": [
        {
          "indexed": false,
          "internalType": "address",
          "name": "account",
          "type": "address"
        }
      ],
      "name": "Unpaused",
      "type": "event"
    },
    {
      "inputs": [
        {
          "internalType": "address",
          "name": "to",
          "type": "address"
        },
        {
          "internalType": "uint256",
          "name": "tokenId",
          "type": "uint256"
        }
      ],
      "name": "approve",
      "outputs": [],
      "stateMutability": "nonpayable",
      "type": "function"
    },
    {
      "inputs": [
        {
          "internalType": "address",
          "name": "owner",
          "type": "address"
        }
      ],
      "name": "balanceOf",
      "outputs": [
        {
          "internalType": "uint256",
          "name": "",
          "type": "uint256"
        }
      ],
      "stateMutability": "view",
      "type": "function"
    },
    {
      "inputs": [
        {
          "internalType": "uint256",
          "name": "tokenId",
          "type": "uint256"
        }
      ],
      "name": "burn",
      "outputs": [],
      "stateMutability": "nonpayable",
      "type": "function"
    },
    {
      "inputs": [
        {
          "internalType": "uint256",
          "name": "tokenId",
          "type": "uint256"
        },
        {
          "components": [
            {
              "internalType": "string",
              "name": "version",
              "type": "string"
            },
            {
              "internalType": "string",
              "name": "ephemPublicKey",
              "type": "string"
            },
            {
              "internalType": "string",
              "name": "nonce",
              "type": "string"
            },
            {
              "internalType": "string",
              "name": "ciphertext",
              "type": "string"
            }
          ],
          "internalType": "struct promptNFT.encryptData",
          "name": "contractOwnerEncryptData",
          "type": "tuple"
        }
      ],
      "name": "claimContractOwnerPrompt",
      "outputs": [],
      "stateMutability": "nonpayable",
      "type": "function"
    },
    {
      "inputs": [
        {
          "internalType": "uint256",
          "name": "tokenId",
          "type": "uint256"
        },
        {
          "components": [
            {
              "internalType": "string",
              "name": "version",
              "type": "string"
            },
            {
              "internalType": "string",
              "name": "ephemPublicKey",
              "type": "string"
            },
            {
              "internalType": "string",
              "name": "nonce",
              "type": "string"
            },
            {
              "internalType": "string",
              "name": "ciphertext",
              "type": "string"
            }
          ],
          "internalType": "struct promptNFT.encryptData",
          "name": "tokenOwnerEncryptData",
          "type": "tuple"
        }
      ],
      "name": "claimTokenOwnerPrompt",
      "outputs": [],
      "stateMutability": "nonpayable",
      "type": "function"
    },
    {
      "inputs": [
        {
          "internalType": "uint256",
          "name": "tokenId",
          "type": "uint256"
        }
      ],
      "name": "getApproved",
      "outputs": [
        {
          "internalType": "address",
          "name": "",
          "type": "address"
        }
      ],
      "stateMutability": "view",
      "type": "function"
    },
    {
      "inputs": [
        {
          "internalType": "uint256",
          "name": "tokenId",
          "type": "uint256"
        }
      ],
      "name": "getContractOwnerPrompt",
      "outputs": [
        {
          "components": [
            {
              "internalType": "string",
              "name": "version",
              "type": "string"
            },
            {
              "internalType": "string",
              "name": "ephemPublicKey",
              "type": "string"
            },
            {
              "internalType": "string",
              "name": "nonce",
              "type": "string"
            },
            {
              "internalType": "string",
              "name": "ciphertext",
              "type": "string"
            }
          ],
          "internalType": "struct promptNFT.encryptData",
          "name": "",
          "type": "tuple"
        }
      ],
      "stateMutability": "view",
      "type": "function"
    },
    {
      "inputs": [
        {
          "internalType": "uint256",
          "name": "tokenId",
          "type": "uint256"
        }
      ],
      "name": "getTokenOwnerPrompt",
      "outputs": [
        {
          "components": [
            {
              "internalType": "string",
              "name": "version",
              "type": "string"
            },
            {
              "internalType": "string",
              "name": "ephemPublicKey",
              "type": "string"
            },
            {
              "internalType": "string",
              "name": "nonce",
              "type": "string"
            },
            {
              "internalType": "string",
              "name": "ciphertext",
              "type": "string"
            }
          ],
          "internalType": "struct promptNFT.encryptData",
          "name": "",
          "type": "tuple"
        }
      ],
      "stateMutability": "view",
      "type": "function"
    },
    {
      "inputs": [
        {
          "internalType": "address",
          "name": "owner",
          "type": "address"
        },
        {
          "internalType": "address",
          "name": "operator",
          "type": "address"
        }
      ],
      "name": "isApprovedForAll",
      "outputs": [
        {
          "internalType": "bool",
          "name": "",
          "type": "bool"
        }
      ],
      "stateMutability": "view",
      "type": "function"
    },
    {
      "inputs": [],
      "name": "name",
      "outputs": [
        {
          "internalType": "string",
          "name": "",
          "type": "string"
        }
      ],
      "stateMutability": "view",
      "type": "function"
    },
    {
      "inputs": [],
      "name": "owner",
      "outputs": [
        {
          "internalType": "address",
          "name": "",
          "type": "address"
        }
      ],
      "stateMutability": "view",
      "type": "function"
    },
    {
      "inputs": [
        {
          "internalType": "uint256",
          "name": "tokenId",
          "type": "uint256"
        }
      ],
      "name": "ownerOf",
      "outputs": [
        {
          "internalType": "address",
          "name": "",
          "type": "address"
        }
      ],
      "stateMutability": "view",
      "type": "function"
    },
    {
      "inputs": [],
      "name": "pause",
      "outputs": [],
      "stateMutability": "nonpayable",
      "type": "function"
    },
    {
      "inputs": [],
      "name": "paused",
      "outputs": [
        {
          "internalType": "bool",
          "name": "",
          "type": "bool"
        }
      ],
      "stateMutability": "view",
      "type": "function"
    },
    {
      "inputs": [],
      "name": "renounceOwnership",
      "outputs": [],
      "stateMutability": "nonpayable",
      "type": "function"
    },
    {
      "inputs": [
        {
          "internalType": "address",
          "name": "to_",
          "type": "address"
        },
        {
          "internalType": "string",
          "name": "uri_",
          "type": "string"
        },
        {
          "components": [
            {
              "internalType": "string",
              "name": "version",
              "type": "string"
            },
            {
              "internalType": "string",
              "name": "ephemPublicKey",
              "type": "string"
            },
            {
              "internalType": "string",
              "name": "nonce",
              "type": "string"
            },
            {
              "internalType": "string",
              "name": "ciphertext",
              "type": "string"
            }
          ],
          "internalType": "struct promptNFT.encryptData",
          "name": "tokenOwnerEncryptData_",
          "type": "tuple"
        },
        {
          "components": [
            {
              "internalType": "string",
              "name": "version",
              "type": "string"
            },
            {
              "internalType": "string",
              "name": "ephemPublicKey",
              "type": "string"
            },
            {
              "internalType": "string",
              "name": "nonce",
              "type": "string"
            },
            {
              "internalType": "string",
              "name": "ciphertext",
              "type": "string"
            }
          ],
          "internalType": "struct promptNFT.encryptData",
          "name": "contractOwnerEncryptData_",
          "type": "tuple"
        }
      ],
      "name": "safeMint",
      "outputs": [
        {
          "internalType": "uint256",
          "name": "",
          "type": "uint256"
        }
      ],
      "stateMutability": "nonpayable",
      "type": "function"
    },
    {
      "inputs": [
        {
          "internalType": "address",
          "name": "from",
          "type": "address"
        },
        {
          "internalType": "address",
          "name": "to",
          "type": "address"
        },
        {
          "internalType": "uint256",
          "name": "tokenId",
          "type": "uint256"
        }
      ],
      "name": "safeTransferFrom",
      "outputs": [],
      "stateMutability": "nonpayable",
      "type": "function"
    },
    {
      "inputs": [
        {
          "internalType": "address",
          "name": "from",
          "type": "address"
        },
        {
          "internalType": "address",
          "name": "to",
          "type": "address"
        },
        {
          "internalType": "uint256",
          "name": "tokenId",
          "type": "uint256"
        },
        {
          "internalType": "bytes",
          "name": "data",
          "type": "bytes"
        }
      ],
      "name": "safeTransferFrom",
      "outputs": [],
      "stateMutability": "nonpayable",
      "type": "function"
    },
    {
      "inputs": [
        {
          "internalType": "address",
          "name": "operator",
          "type": "address"
        },
        {
          "internalType": "bool",
          "name": "approved",
          "type": "bool"
        }
      ],
      "name": "setApprovalForAll",
      "outputs": [],
      "stateMutability": "nonpayable",
      "type": "function"
    },
    {
      "inputs": [
        {
          "internalType": "bytes4",
          "name": "interfaceId",
          "type": "bytes4"
        }
      ],
      "name": "supportsInterface",
      "outputs": [
        {
          "internalType": "bool",
          "name": "",
          "type": "bool"
        }
      ],
      "stateMutability": "view",
      "type": "function"
    },
    {
      "inputs": [],
      "name": "symbol",
      "outputs": [
        {
          "internalType": "string",
          "name": "",
          "type": "string"
        }
      ],
      "stateMutability": "view",
      "type": "function"
    },
    {
      "inputs": [
        {
          "internalType": "uint256",
          "name": "index",
          "type": "uint256"
        }
      ],
      "name": "tokenByIndex",
      "outputs": [
        {
          "internalType": "uint256",
          "name": "",
          "type": "uint256"
        }
      ],
      "stateMutability": "view",
      "type": "function"
    },
    {
      "inputs": [
        {
          "internalType": "address",
          "name": "owner",
          "type": "address"
        },
        {
          "internalType": "uint256",
          "name": "index",
          "type": "uint256"
        }
      ],
      "name": "tokenOfOwnerByIndex",
      "outputs": [
        {
          "internalType": "uint256",
          "name": "",
          "type": "uint256"
        }
      ],
      "stateMutability": "view",
      "type": "function"
    },
    {
      "inputs": [
        {
          "internalType": "uint256",
          "name": "tokenId",
          "type": "uint256"
        }
      ],
      "name": "tokenURI",
      "outputs": [
        {
          "internalType": "string",
          "name": "",
          "type": "string"
        }
      ],
      "stateMutability": "view",
      "type": "function"
    },
    {
      "inputs": [],
      "name": "totalSupply",
      "outputs": [
        {
          "internalType": "uint256",
          "name": "",
          "type": "uint256"
        }
      ],
      "stateMutability": "view",
      "type": "function"
    },
    {
      "inputs": [
        {
          "internalType": "address",
          "name": "from",
          "type": "address"
        },
        {
          "internalType": "address",
          "name": "to",
          "type": "address"
        },
        {
          "internalType": "uint256",
          "name": "tokenId",
          "type": "uint256"
        }
      ],
      "name": "transferFrom",
      "outputs": [],
      "stateMutability": "nonpayable",
      "type": "function"
    },
    {
      "inputs": [
        {
          "internalType": "address",
          "name": "newOwner",
          "type": "address"
        }
      ],
      "name": "transferOwnership",
      "outputs": [],
      "stateMutability": "nonpayable",
      "type": "function"
    },
    {
      "inputs": [],
      "name": "unpause",
      "outputs": [],
      "stateMutability": "nonpayable",
      "type": "function"
    }
  ],
  "bytecode": "0x60806040523480156200001157600080fd5b50604051620052b3380380620052b3833981810160405281019062000037919062000472565b8282816000908051906020019062000051929190620001c0565b5080600190805190602001906200006a929190620001c0565b5050506000600b60006101000a81548160ff021916908315150217905550620000a86200009c620000f260201b60201c565b620000fa60201b60201c565b80600d60006101000a81548173ffffffffffffffffffffffffffffffffffffffff021916908373ffffffffffffffffffffffffffffffffffffffff16021790555050505062000571565b600033905090565b6000600b60019054906101000a900473ffffffffffffffffffffffffffffffffffffffff16905081600b60016101000a81548173ffffffffffffffffffffffffffffffffffffffff021916908373ffffffffffffffffffffffffffffffffffffffff1602179055508173ffffffffffffffffffffffffffffffffffffffff168173ffffffffffffffffffffffffffffffffffffffff167f8be0079c531659141344cd1fd0a4f28419497f9722a3daafe3b4186f6b6457e060405160405180910390a35050565b828054620001ce906200053b565b90600052602060002090601f016020900481019282620001f257600085556200023e565b82601f106200020d57805160ff19168380011785556200023e565b828001600101855582156200023e579182015b828111156200023d57825182559160200191906001019062000220565b5b5090506200024d919062000251565b5090565b5b808211156200026c57600081600090555060010162000252565b5090565b6000604051905090565b600080fd5b600080fd5b600080fd5b600080fd5b6000601f19601f8301169050919050565b7f4e487b7100000000000000000000000000000000000000000000000000000000600052604160045260246000fd5b620002d9826200028e565b810181811067ffffffffffffffff82111715620002fb57620002fa6200029f565b5b80604052505050565b60006200031062000270565b90506200031e8282620002ce565b919050565b600067ffffffffffffffff8211156200034157620003406200029f565b5b6200034c826200028e565b9050602081019050919050565b60005b83811015620003795780820151818401526020810190506200035c565b8381111562000389576000848401525b50505050565b6000620003a6620003a08462000323565b62000304565b905082815260208101848484011115620003c557620003c462000289565b5b620003d284828562000359565b509392505050565b600082601f830112620003f257620003f162000284565b5b8151620004048482602086016200038f565b91505092915050565b600073ffffffffffffffffffffffffffffffffffffffff82169050919050565b60006200043a826200040d565b9050919050565b6200044c816200042d565b81146200045857600080fd5b50565b6000815190506200046c8162000441565b92915050565b6000806000606084860312156200048e576200048d6200027a565b5b600084015167ffffffffffffffff811115620004af57620004ae6200027f565b5b620004bd86828701620003da565b935050602084015167ffffffffffffffff811115620004e157620004e06200027f565b5b620004ef86828701620003da565b925050604062000502868287016200045b565b9150509250925092565b7f4e487b7100000000000000000000000000000000000000000000000000000000600052602260045260246000fd5b600060028204905060018216806200055457607f821691505b602082108114156200056b576200056a6200050c565b5b50919050565b614d3280620005816000396000f3fe608060405234801561001057600080fd5b50600436106101c45760003560e01c80636352211e116100f9578063a22cb46511610097578063dea62bfd11610071578063dea62bfd146104f1578063e985e9c514610521578063ef8cfd1114610551578063f2fde38b1461056d576101c4565b8063a22cb46514610489578063b88d4fde146104a5578063c87b56dd146104c1576101c4565b80638456cb59116100d35780638456cb59146104135780638da5cb5b1461041d57806395d89b411461043b5780639cac21b414610459576101c4565b80636352211e146103a957806370a08231146103d9578063715018a614610409576101c4565b80632f745c591161016657806342842e0e1161014057806342842e0e1461032357806342966c681461033f5780634f6ccce71461035b5780635c975abb1461038b576101c4565b80632f745c59146102cd5780633f4ba83a146102fd57806342826a2914610307576101c4565b8063081812fc116101a2578063081812fc14610247578063095ea7b31461027757806318160ddd1461029357806323b872dd146102b1576101c4565b806301ffc9a7146101c957806306e54ceb146101f957806306fdde0314610229575b600080fd5b6101e360048036038101906101de9190613540565b610589565b6040516101f09190613588565b60405180910390f35b610213600480360381019061020e91906135d9565b61059b565b6040516102209190613717565b60405180910390f35b61023161088c565b60405161023e9190613783565b60405180910390f35b610261600480360381019061025c91906135d9565b61091e565b60405161026e91906137e6565b60405180910390f35b610291600480360381019061028c919061382d565b610964565b005b61029b610a7c565b6040516102a8919061387c565b60405180910390f35b6102cb60048036038101906102c69190613897565b610a89565b005b6102e760048036038101906102e2919061382d565b610ae9565b6040516102f4919061387c565b60405180910390f35b610305610b8e565b005b610321600480360381019061031c9190613b11565b610ba0565b005b61033d60048036038101906103389190613897565b610cab565b005b610359600480360381019061035491906135d9565b610ccb565b005b610375600480360381019061037091906135d9565b610d27565b604051610382919061387c565b60405180910390f35b610393610d98565b6040516103a09190613588565b60405180910390f35b6103c360048036038101906103be91906135d9565b610daf565b6040516103d091906137e6565b60405180910390f35b6103f360048036038101906103ee9190613b6d565b610e36565b604051610400919061387c565b60405180910390f35b610411610eee565b005b61041b610f02565b005b610425610f14565b60405161043291906137e6565b60405180910390f35b610443610f3e565b6040516104509190613783565b60405180910390f35b610473600480360381019061046e91906135d9565b610fd0565b6040516104809190613717565b60405180910390f35b6104a3600480360381019061049e9190613bc6565b611295565b005b6104bf60048036038101906104ba9190613ca7565b6112ab565b005b6104db60048036038101906104d691906135d9565b61130d565b6040516104e89190613783565b60405180910390f35b61050b60048036038101906105069190613d2a565b61131f565b604051610518919061387c565b60405180910390f35b61053b60048036038101906105369190613de5565b611572565b6040516105489190613588565b60405180910390f35b61056b60048036038101906105669190613b11565b611606565b005b61058760048036038101906105829190613b6d565b6116e5565b005b600061059482611769565b9050919050565b6105a36133c9565b6105ab6117e3565b73ffffffffffffffffffffffffffffffffffffffff166105c9610f14565b73ffffffffffffffffffffffffffffffffffffffff161461061f576040517f08c379a000000000000000000000000000000000000000000000000000000000815260040161061690613e71565b60405180910390fd5b600f600083815260200190815260200160002060405180608001604052908160008201805461064d90613ec0565b80601f016020809104026020016040519081016040528092919081815260200182805461067990613ec0565b80156106c65780601f1061069b576101008083540402835291602001916106c6565b820191906000526020600020905b8154815290600101906020018083116106a957829003601f168201915b505050505081526020016001820180546106df90613ec0565b80601f016020809104026020016040519081016040528092919081815260200182805461070b90613ec0565b80156107585780601f1061072d57610100808354040283529160200191610758565b820191906000526020600020905b81548152906001019060200180831161073b57829003601f168201915b5050505050815260200160028201805461077190613ec0565b80601f016020809104026020016040519081016040528092919081815260200182805461079d90613ec0565b80156107ea5780601f106107bf576101008083540402835291602001916107ea565b820191906000526020600020905b8154815290600101906020018083116107cd57829003601f168201915b5050505050815260200160038201805461080390613ec0565b80601f016020809104026020016040519081016040528092919081815260200182805461082f90613ec0565b801561087c5780601f106108515761010080835404028352916020019161087c565b820191906000526020600020905b81548152906001019060200180831161085f57829003601f168201915b5050505050815250509050919050565b60606000805461089b90613ec0565b80601f01602080910402602001604051908101604052809291908181526020018280546108c790613ec0565b80156109145780601f106108e957610100808354040283529160200191610914565b820191906000526020600020905b8154815290600101906020018083116108f757829003601f168201915b5050505050905090565b6000610929826117eb565b6004600083815260200190815260200160002060009054906101000a900473ffffffffffffffffffffffffffffffffffffffff169050919050565b600061096f82610daf565b90508073ffffffffffffffffffffffffffffffffffffffff168373ffffffffffffffffffffffffffffffffffffffff1614156109e0576040517f08c379a00000000000000000000000000000000000000000000000000000000081526004016109d790613f64565b60405180910390fd5b8073ffffffffffffffffffffffffffffffffffffffff166109ff6117e3565b73ffffffffffffffffffffffffffffffffffffffff161480610a2e5750610a2d81610a286117e3565b611572565b5b610a6d576040517f08c379a0000000000000000000000000000000000000000000000000000000008152600401610a6490613ff6565b60405180910390fd5b610a778383611836565b505050565b6000600880549050905090565b610a9a610a946117e3565b826118ef565b610ad9576040517f08c379a0000000000000000000000000000000000000000000000000000000008152600401610ad090614088565b60405180910390fd5b610ae4838383611984565b505050565b6000610af483610e36565b8210610b35576040517f08c379a0000000000000000000000000000000000000000000000000000000008152600401610b2c9061411a565b60405180910390fd5b600660008473ffffffffffffffffffffffffffffffffffffffff1673ffffffffffffffffffffffffffffffffffffffff168152602001908152602001600020600083815260200190815260200160002054905092915050565b610b96611c7e565b610b9e611cfc565b565b610ba86117e3565b73ffffffffffffffffffffffffffffffffffffffff16610bc6610f14565b73ffffffffffffffffffffffffffffffffffffffff1614610c1c576040517f08c379a0000000000000000000000000000000000000000000000000000000008152600401610c1390613e71565b60405180910390fd5b80600f60008481526020019081526020016000206000820151816000019080519060200190610c4c9291906133f1565b506020820151816001019080519060200190610c699291906133f1565b506040820151816002019080519060200190610c869291906133f1565b506060820151816003019080519060200190610ca39291906133f1565b509050505050565b610cc6838383604051806020016040528060008152506112ab565b505050565b610cdc610cd66117e3565b826118ef565b610d1b576040517f08c379a0000000000000000000000000000000000000000000000000000000008152600401610d1290614088565b60405180910390fd5b610d2481611d5f565b50565b6000610d31610a7c565b8210610d72576040517f08c379a0000000000000000000000000000000000000000000000000000000008152600401610d69906141ac565b60405180910390fd5b60088281548110610d8657610d856141cc565b5b90600052602060002001549050919050565b6000600b60009054906101000a900460ff16905090565b600080610dbb83611e17565b9050600073ffffffffffffffffffffffffffffffffffffffff168173ffffffffffffffffffffffffffffffffffffffff161415610e2d576040517f08c379a0000000000000000000000000000000000000000000000000000000008152600401610e2490614247565b60405180910390fd5b80915050919050565b60008073ffffffffffffffffffffffffffffffffffffffff168273ffffffffffffffffffffffffffffffffffffffff161415610ea7576040517f08c379a0000000000000000000000000000000000000000000000000000000008152600401610e9e906142d9565b60405180910390fd5b600360008373ffffffffffffffffffffffffffffffffffffffff1673ffffffffffffffffffffffffffffffffffffffff168152602001908152602001600020549050919050565b610ef6611c7e565b610f006000611e54565b565b610f0a611c7e565b610f12611f1a565b565b6000600b60019054906101000a900473ffffffffffffffffffffffffffffffffffffffff16905090565b606060018054610f4d90613ec0565b80601f0160208091040260200160405190810160405280929190818152602001828054610f7990613ec0565b8015610fc65780601f10610f9b57610100808354040283529160200191610fc6565b820191906000526020600020905b815481529060010190602001808311610fa957829003601f168201915b5050505050905090565b610fd86133c9565b610fe9610fe36117e3565b836118ef565b611028576040517f08c379a000000000000000000000000000000000000000000000000000000000815260040161101f9061436b565b60405180910390fd5b600e600083815260200190815260200160002060405180608001604052908160008201805461105690613ec0565b80601f016020809104026020016040519081016040528092919081815260200182805461108290613ec0565b80156110cf5780601f106110a4576101008083540402835291602001916110cf565b820191906000526020600020905b8154815290600101906020018083116110b257829003601f168201915b505050505081526020016001820180546110e890613ec0565b80601f016020809104026020016040519081016040528092919081815260200182805461111490613ec0565b80156111615780601f1061113657610100808354040283529160200191611161565b820191906000526020600020905b81548152906001019060200180831161114457829003601f168201915b5050505050815260200160028201805461117a90613ec0565b80601f01602080910402602001604051908101604052809291908181526020018280546111a690613ec0565b80156111f35780601f106111c8576101008083540402835291602001916111f3565b820191906000526020600020905b8154815290600101906020018083116111d657829003601f168201915b5050505050815260200160038201805461120c90613ec0565b80601f016020809104026020016040519081016040528092919081815260200182805461123890613ec0565b80156112855780601f1061125a57610100808354040283529160200191611285565b820191906000526020600020905b81548152906001019060200180831161126857829003601f168201915b5050505050815250509050919050565b6112a76112a06117e3565b8383611f7d565b5050565b6112bc6112b66117e3565b836118ef565b6112fb576040517f08c379a00000000000000000000000000000000000000000000000000000000081526004016112f290614088565b60405180910390fd5b611307848484846120ea565b50505050565b606061131882612146565b9050919050565b600061132b600c612259565b6000611337600c61226f565b9050611343868261227d565b61134d818661229b565b83600e6000838152602001908152602001600020600082015181600001908051906020019061137d9291906133f1565b50602082015181600101908051906020019061139a9291906133f1565b5060408201518160020190805190602001906113b79291906133f1565b5060608201518160030190805190602001906113d49291906133f1565b5090505082600f600083815260200190815260200160002060008201518160000190805190602001906114089291906133f1565b5060208201518160010190805190602001906114259291906133f1565b5060408201518160020190805190602001906114429291906133f1565b50606082015181600301908051906020019061145f9291906133f1565b509050506000600d60009054906101000a900473ffffffffffffffffffffffffffffffffffffffff1673ffffffffffffffffffffffffffffffffffffffff166317a6b60930846040518363ffffffff1660e01b81526004016114c292919061438b565b602060405180830381600087803b1580156114dc57600080fd5b505af11580156114f0573d6000803e3d6000fd5b505050506040513d601f19601f8201168201806040525081019061151491906143c9565b9050600015158115151415611565576000611564576040517f08c379a000000000000000000000000000000000000000000000000000000000815260040161155b90614468565b60405180910390fd5b5b8192505050949350505050565b6000600560008473ffffffffffffffffffffffffffffffffffffffff1673ffffffffffffffffffffffffffffffffffffffff16815260200190815260200160002060008373ffffffffffffffffffffffffffffffffffffffff1673ffffffffffffffffffffffffffffffffffffffff16815260200190815260200160002060009054906101000a900460ff16905092915050565b6116176116116117e3565b836118ef565b611656576040517f08c379a000000000000000000000000000000000000000000000000000000000815260040161164d906144fa565b60405180910390fd5b80600e600084815260200190815260200160002060008201518160000190805190602001906116869291906133f1565b5060208201518160010190805190602001906116a39291906133f1565b5060408201518160020190805190602001906116c09291906133f1565b5060608201518160030190805190602001906116dd9291906133f1565b509050505050565b6116ed611c7e565b600073ffffffffffffffffffffffffffffffffffffffff168173ffffffffffffffffffffffffffffffffffffffff16141561175d576040517f08c379a00000000000000000000000000000000000000000000000000000000081526004016117549061458c565b60405180910390fd5b61176681611e54565b50565b60007f780e9d63000000000000000000000000000000000000000000000000000000007bffffffffffffffffffffffffffffffffffffffffffffffffffffffff1916827bffffffffffffffffffffffffffffffffffffffffffffffffffffffff191614806117dc57506117db8261230f565b5b9050919050565b600033905090565b6117f4816123f1565b611833576040517f08c379a000000000000000000000000000000000000000000000000000000000815260040161182a90614247565b60405180910390fd5b50565b816004600083815260200190815260200160002060006101000a81548173ffffffffffffffffffffffffffffffffffffffff021916908373ffffffffffffffffffffffffffffffffffffffff160217905550808273ffffffffffffffffffffffffffffffffffffffff166118a983610daf565b73ffffffffffffffffffffffffffffffffffffffff167f8c5be1e5ebec7d5bd14f71427d1e84f3dd0314c0f7b2291e5b200ac8c7c3b92560405160405180910390a45050565b6000806118fb83610daf565b90508073ffffffffffffffffffffffffffffffffffffffff168473ffffffffffffffffffffffffffffffffffffffff16148061193d575061193c8185611572565b5b8061197b57508373ffffffffffffffffffffffffffffffffffffffff166119638461091e565b73ffffffffffffffffffffffffffffffffffffffff16145b91505092915050565b8273ffffffffffffffffffffffffffffffffffffffff166119a482610daf565b73ffffffffffffffffffffffffffffffffffffffff16146119fa576040517f08c379a00000000000000000000000000000000000000000000000000000000081526004016119f19061461e565b60405180910390fd5b600073ffffffffffffffffffffffffffffffffffffffff168273ffffffffffffffffffffffffffffffffffffffff161415611a6a576040517f08c379a0000000000000000000000000000000000000000000000000000000008152600401611a61906146b0565b60405180910390fd5b611a778383836001612432565b8273ffffffffffffffffffffffffffffffffffffffff16611a9782610daf565b73ffffffffffffffffffffffffffffffffffffffff1614611aed576040517f08c379a0000000000000000000000000000000000000000000000000000000008152600401611ae49061461e565b60405180910390fd5b6004600082815260200190815260200160002060006101000a81549073ffffffffffffffffffffffffffffffffffffffff02191690556001600360008573ffffffffffffffffffffffffffffffffffffffff1673ffffffffffffffffffffffffffffffffffffffff168152602001908152602001600020600082825403925050819055506001600360008473ffffffffffffffffffffffffffffffffffffffff1673ffffffffffffffffffffffffffffffffffffffff16815260200190815260200160002060008282540192505081905550816002600083815260200190815260200160002060006101000a81548173ffffffffffffffffffffffffffffffffffffffff021916908373ffffffffffffffffffffffffffffffffffffffff160217905550808273ffffffffffffffffffffffffffffffffffffffff168473ffffffffffffffffffffffffffffffffffffffff167fddf252ad1be2c89b69c2b068fc378daa952ba7f163c4a11628f55a4df523b3ef60405160405180910390a4611c79838383600161244c565b505050565b611c866117e3565b73ffffffffffffffffffffffffffffffffffffffff16611ca4610f14565b73ffffffffffffffffffffffffffffffffffffffff1614611cfa576040517f08c379a0000000000000000000000000000000000000000000000000000000008152600401611cf190613e71565b60405180910390fd5b565b611d046124bc565b6000600b60006101000a81548160ff0219169083151502179055507f5db9ee0a495bf2e6ff9c91a7834c1ba4fdd244a5e8aa4e537bd38aeae4b073aa611d486117e3565b604051611d5591906137e6565b60405180910390a1565b611d6881612505565b600e600082815260200190815260200160002060008082016000611d8c9190613477565b600182016000611d9c9190613477565b600282016000611dac9190613477565b600382016000611dbc9190613477565b5050600f600082815260200190815260200160002060008082016000611de29190613477565b600182016000611df29190613477565b600282016000611e029190613477565b600382016000611e129190613477565b505050565b60006002600083815260200190815260200160002060009054906101000a900473ffffffffffffffffffffffffffffffffffffffff169050919050565b6000600b60019054906101000a900473ffffffffffffffffffffffffffffffffffffffff16905081600b60016101000a81548173ffffffffffffffffffffffffffffffffffffffff021916908373ffffffffffffffffffffffffffffffffffffffff1602179055508173ffffffffffffffffffffffffffffffffffffffff168173ffffffffffffffffffffffffffffffffffffffff167f8be0079c531659141344cd1fd0a4f28419497f9722a3daafe3b4186f6b6457e060405160405180910390a35050565b611f22612558565b6001600b60006101000a81548160ff0219169083151502179055507f62e78cea01bee320cd4e420270b5ea74000d11b0c9f74754ebdbfc544b05a258611f666117e3565b604051611f7391906137e6565b60405180910390a1565b8173ffffffffffffffffffffffffffffffffffffffff168373ffffffffffffffffffffffffffffffffffffffff161415611fec576040517f08c379a0000000000000000000000000000000000000000000000000000000008152600401611fe39061471c565b60405180910390fd5b80600560008573ffffffffffffffffffffffffffffffffffffffff1673ffffffffffffffffffffffffffffffffffffffff16815260200190815260200160002060008473ffffffffffffffffffffffffffffffffffffffff1673ffffffffffffffffffffffffffffffffffffffff16815260200190815260200160002060006101000a81548160ff0219169083151502179055508173ffffffffffffffffffffffffffffffffffffffff168373ffffffffffffffffffffffffffffffffffffffff167f17307eab39ab6107e8899845ad3d59bd9653f200f220920489ca2b5937696c31836040516120dd9190613588565b60405180910390a3505050565b6120f5848484611984565b612101848484846125a2565b612140576040517f08c379a0000000000000000000000000000000000000000000000000000000008152600401612137906147ae565b60405180910390fd5b50505050565b6060612151826117eb565b6000600a6000848152602001908152602001600020805461217190613ec0565b80601f016020809104026020016040519081016040528092919081815260200182805461219d90613ec0565b80156121ea5780601f106121bf576101008083540402835291602001916121ea565b820191906000526020600020905b8154815290600101906020018083116121cd57829003601f168201915b5050505050905060006121fb612739565b9050600081511415612211578192505050612254565b60008251111561224657808260405160200161222e92919061480a565b60405160208183030381529060405292505050612254565b61224f84612750565b925050505b919050565b6001816000016000828254019250508190555050565b600081600001549050919050565b6122978282604051806020016040528060008152506127b8565b5050565b6122a4826123f1565b6122e3576040517f08c379a00000000000000000000000000000000000000000000000000000000081526004016122da906148a0565b60405180910390fd5b80600a6000848152602001908152602001600020908051906020019061230a9291906133f1565b505050565b60007f80ac58cd000000000000000000000000000000000000000000000000000000007bffffffffffffffffffffffffffffffffffffffffffffffffffffffff1916827bffffffffffffffffffffffffffffffffffffffffffffffffffffffff191614806123da57507f5b5e139f000000000000000000000000000000000000000000000000000000007bffffffffffffffffffffffffffffffffffffffffffffffffffffffff1916827bffffffffffffffffffffffffffffffffffffffffffffffffffffffff1916145b806123ea57506123e982612813565b5b9050919050565b60008073ffffffffffffffffffffffffffffffffffffffff1661241383611e17565b73ffffffffffffffffffffffffffffffffffffffff1614159050919050565b61243a612558565b6124468484848461287d565b50505050565b612454612558565b612460848484846129dd565b600e6000838152602001908152602001600020600080820160006124849190613477565b6001820160006124949190613477565b6002820160006124a49190613477565b6003820160006124b49190613477565b505050505050565b6124c4610d98565b612503576040517f08c379a00000000000000000000000000000000000000000000000000000000081526004016124fa9061490c565b60405180910390fd5b565b61250e816129e3565b6000600a6000838152602001908152602001600020805461252e90613ec0565b90501461255557600a600082815260200190815260200160002060006125549190613477565b5b50565b612560610d98565b156125a0576040517f08c379a000000000000000000000000000000000000000000000000000000000815260040161259790614978565b60405180910390fd5b565b60006125c38473ffffffffffffffffffffffffffffffffffffffff16612b31565b1561272c578373ffffffffffffffffffffffffffffffffffffffff1663150b7a026125ec6117e3565b8786866040518563ffffffff1660e01b815260040161260e94939291906149ed565b602060405180830381600087803b15801561262857600080fd5b505af192505050801561265957506040513d601f19601f820116820180604052508101906126569190614a4e565b60015b6126dc573d8060008114612689576040519150601f19603f3d011682016040523d82523d6000602084013e61268e565b606091505b506000815114156126d4576040517f08c379a00000000000000000000000000000000000000000000000000000000081526004016126cb906147ae565b60405180910390fd5b805181602001fd5b63150b7a0260e01b7bffffffffffffffffffffffffffffffffffffffffffffffffffffffff1916817bffffffffffffffffffffffffffffffffffffffffffffffffffffffff191614915050612731565b600190505b949350505050565b606060405180602001604052806000815250905090565b606061275b826117eb565b6000612765612739565b9050600081511161278557604051806020016040528060008152506127b0565b8061278f84612b54565b6040516020016127a092919061480a565b6040516020818303038152906040525b915050919050565b6127c28383612c2c565b6127cf60008484846125a2565b61280e576040517f08c379a0000000000000000000000000000000000000000000000000000000008152600401612805906147ae565b60405180910390fd5b505050565b60007f01ffc9a7000000000000000000000000000000000000000000000000000000007bffffffffffffffffffffffffffffffffffffffffffffffffffffffff1916827bffffffffffffffffffffffffffffffffffffffffffffffffffffffff1916149050919050565b61288984848484612e4a565b60018111156128cd576040517f08c379a00000000000000000000000000000000000000000000000000000000081526004016128c490614aed565b60405180910390fd5b6000829050600073ffffffffffffffffffffffffffffffffffffffff168573ffffffffffffffffffffffffffffffffffffffff1614156129155761291081612f70565b612954565b8373ffffffffffffffffffffffffffffffffffffffff168573ffffffffffffffffffffffffffffffffffffffff1614612953576129528582612fb9565b5b5b600073ffffffffffffffffffffffffffffffffffffffff168473ffffffffffffffffffffffffffffffffffffffff1614156129975761299281613126565b6129d6565b8473ffffffffffffffffffffffffffffffffffffffff168473ffffffffffffffffffffffffffffffffffffffff16146129d5576129d484826131f7565b5b5b5050505050565b50505050565b60006129ee82610daf565b90506129fe816000846001612432565b612a0782610daf565b90506004600083815260200190815260200160002060006101000a81549073ffffffffffffffffffffffffffffffffffffffff02191690556001600360008373ffffffffffffffffffffffffffffffffffffffff1673ffffffffffffffffffffffffffffffffffffffff168152602001908152602001600020600082825403925050819055506002600083815260200190815260200160002060006101000a81549073ffffffffffffffffffffffffffffffffffffffff021916905581600073ffffffffffffffffffffffffffffffffffffffff168273ffffffffffffffffffffffffffffffffffffffff167fddf252ad1be2c89b69c2b068fc378daa952ba7f163c4a11628f55a4df523b3ef60405160405180910390a4612b2d81600084600161244c565b5050565b6000808273ffffffffffffffffffffffffffffffffffffffff163b119050919050565b606060006001612b6384613276565b01905060008167ffffffffffffffff811115612b8257612b816138ef565b5b6040519080825280601f01601f191660200182016040528015612bb45781602001600182028036833780820191505090505b509050600082602001820190505b600115612c21578080600190039150507f3031323334353637383961626364656600000000000000000000000000000000600a86061a8153600a8581612c0b57612c0a614b0d565b5b0494506000851415612c1c57612c21565b612bc2565b819350505050919050565b600073ffffffffffffffffffffffffffffffffffffffff168273ffffffffffffffffffffffffffffffffffffffff161415612c9c576040517f08c379a0000000000000000000000000000000000000000000000000000000008152600401612c9390614b88565b60405180910390fd5b612ca5816123f1565b15612ce5576040517f08c379a0000000000000000000000000000000000000000000000000000000008152600401612cdc90614bf4565b60405180910390fd5b612cf3600083836001612432565b612cfc816123f1565b15612d3c576040517f08c379a0000000000000000000000000000000000000000000000000000000008152600401612d3390614bf4565b60405180910390fd5b6001600360008473ffffffffffffffffffffffffffffffffffffffff1673ffffffffffffffffffffffffffffffffffffffff16815260200190815260200160002060008282540192505081905550816002600083815260200190815260200160002060006101000a81548173ffffffffffffffffffffffffffffffffffffffff021916908373ffffffffffffffffffffffffffffffffffffffff160217905550808273ffffffffffffffffffffffffffffffffffffffff16600073ffffffffffffffffffffffffffffffffffffffff167fddf252ad1be2c89b69c2b068fc378daa952ba7f163c4a11628f55a4df523b3ef60405160405180910390a4612e4660008383600161244c565b5050565b6001811115612f6a57600073ffffffffffffffffffffffffffffffffffffffff168473ffffffffffffffffffffffffffffffffffffffff1614612ede5780600360008673ffffffffffffffffffffffffffffffffffffffff1673ffffffffffffffffffffffffffffffffffffffff1681526020019081526020016000206000828254612ed69190614c43565b925050819055505b600073ffffffffffffffffffffffffffffffffffffffff168373ffffffffffffffffffffffffffffffffffffffff1614612f695780600360008573ffffffffffffffffffffffffffffffffffffffff1673ffffffffffffffffffffffffffffffffffffffff1681526020019081526020016000206000828254612f619190614c77565b925050819055505b5b50505050565b6008805490506009600083815260200190815260200160002081905550600881908060018154018082558091505060019003906000526020600020016000909190919091505550565b60006001612fc684610e36565b612fd09190614c43565b90506000600760008481526020019081526020016000205490508181146130b5576000600660008673ffffffffffffffffffffffffffffffffffffffff1673ffffffffffffffffffffffffffffffffffffffff168152602001908152602001600020600084815260200190815260200160002054905080600660008773ffffffffffffffffffffffffffffffffffffffff1673ffffffffffffffffffffffffffffffffffffffff168152602001908152602001600020600084815260200190815260200160002081905550816007600083815260200190815260200160002081905550505b6007600084815260200190815260200160002060009055600660008573ffffffffffffffffffffffffffffffffffffffff1673ffffffffffffffffffffffffffffffffffffffff16815260200190815260200160002060008381526020019081526020016000206000905550505050565b6000600160088054905061313a9190614c43565b905060006009600084815260200190815260200160002054905060006008838154811061316a576131696141cc565b5b90600052602060002001549050806008838154811061318c5761318b6141cc565b5b9060005260206000200181905550816009600083815260200190815260200160002081905550600960008581526020019081526020016000206000905560088054806131db576131da614ccd565b5b6001900381819060005260206000200160009055905550505050565b600061320283610e36565b905081600660008573ffffffffffffffffffffffffffffffffffffffff1673ffffffffffffffffffffffffffffffffffffffff168152602001908152602001600020600083815260200190815260200160002081905550806007600084815260200190815260200160002081905550505050565b600080600090507a184f03e93ff9f4daa797ed6e38ed64bf6a1f01000000000000000083106132d4577a184f03e93ff9f4daa797ed6e38ed64bf6a1f01000000000000000083816132ca576132c9614b0d565b5b0492506040810190505b6d04ee2d6d415b85acef81000000008310613311576d04ee2d6d415b85acef8100000000838161330757613306614b0d565b5b0492506020810190505b662386f26fc10000831061334057662386f26fc10000838161333657613335614b0d565b5b0492506010810190505b6305f5e1008310613369576305f5e100838161335f5761335e614b0d565b5b0492506008810190505b612710831061338e57612710838161338457613383614b0d565b5b0492506004810190505b606483106133b157606483816133a7576133a6614b0d565b5b0492506002810190505b600a83106133c0576001810190505b80915050919050565b6040518060800160405280606081526020016060815260200160608152602001606081525090565b8280546133fd90613ec0565b90600052602060002090601f01602090048101928261341f5760008555613466565b82601f1061343857805160ff1916838001178555613466565b82800160010185558215613466579182015b8281111561346557825182559160200191906001019061344a565b5b50905061347391906134b7565b5090565b50805461348390613ec0565b6000825580601f1061349557506134b4565b601f0160209004906000526020600020908101906134b391906134b7565b5b50565b5b808211156134d05760008160009055506001016134b8565b5090565b6000604051905090565b600080fd5b600080fd5b60007fffffffff0000000000000000000000000000000000000000000000000000000082169050919050565b61351d816134e8565b811461352857600080fd5b50565b60008135905061353a81613514565b92915050565b600060208284031215613556576135556134de565b5b60006135648482850161352b565b91505092915050565b60008115159050919050565b6135828161356d565b82525050565b600060208201905061359d6000830184613579565b92915050565b6000819050919050565b6135b6816135a3565b81146135c157600080fd5b50565b6000813590506135d3816135ad565b92915050565b6000602082840312156135ef576135ee6134de565b5b60006135fd848285016135c4565b91505092915050565b600081519050919050565b600082825260208201905092915050565b60005b83811015613640578082015181840152602081019050613625565b8381111561364f576000848401525b50505050565b6000601f19601f8301169050919050565b600061367182613606565b61367b8185613611565b935061368b818560208601613622565b61369481613655565b840191505092915050565b600060808301600083015184820360008601526136bc8282613666565b915050602083015184820360208601526136d68282613666565b915050604083015184820360408601526136f08282613666565b9150506060830151848203606086015261370a8282613666565b9150508091505092915050565b60006020820190508181036000830152613731818461369f565b905092915050565b600082825260208201905092915050565b600061375582613606565b61375f8185613739565b935061376f818560208601613622565b61377881613655565b840191505092915050565b6000602082019050818103600083015261379d818461374a565b905092915050565b600073ffffffffffffffffffffffffffffffffffffffff82169050919050565b60006137d0826137a5565b9050919050565b6137e0816137c5565b82525050565b60006020820190506137fb60008301846137d7565b92915050565b61380a816137c5565b811461381557600080fd5b50565b60008135905061382781613801565b92915050565b60008060408385031215613844576138436134de565b5b600061385285828601613818565b9250506020613863858286016135c4565b9150509250929050565b613876816135a3565b82525050565b6000602082019050613891600083018461386d565b92915050565b6000806000606084860312156138b0576138af6134de565b5b60006138be86828701613818565b93505060206138cf86828701613818565b92505060406138e0868287016135c4565b9150509250925092565b600080fd5b7f4e487b7100000000000000000000000000000000000000000000000000000000600052604160045260246000fd5b61392782613655565b810181811067ffffffffffffffff82111715613946576139456138ef565b5b80604052505050565b60006139596134d4565b9050613965828261391e565b919050565b600080fd5b600080fd5b600080fd5b600067ffffffffffffffff821115613994576139936138ef565b5b61399d82613655565b9050602081019050919050565b82818337600083830152505050565b60006139cc6139c784613979565b61394f565b9050828152602081018484840111156139e8576139e7613974565b5b6139f38482856139aa565b509392505050565b600082601f830112613a1057613a0f61396f565b5b8135613a208482602086016139b9565b91505092915050565b600060808284031215613a3f57613a3e6138ea565b5b613a49608061394f565b9050600082013567ffffffffffffffff811115613a6957613a6861396a565b5b613a75848285016139fb565b600083015250602082013567ffffffffffffffff811115613a9957613a9861396a565b5b613aa5848285016139fb565b602083015250604082013567ffffffffffffffff811115613ac957613ac861396a565b5b613ad5848285016139fb565b604083015250606082013567ffffffffffffffff811115613af957613af861396a565b5b613b05848285016139fb565b60608301525092915050565b60008060408385031215613b2857613b276134de565b5b6000613b36858286016135c4565b925050602083013567ffffffffffffffff811115613b5757613b566134e3565b5b613b6385828601613a29565b9150509250929050565b600060208284031215613b8357613b826134de565b5b6000613b9184828501613818565b91505092915050565b613ba38161356d565b8114613bae57600080fd5b50565b600081359050613bc081613b9a565b92915050565b60008060408385031215613bdd57613bdc6134de565b5b6000613beb85828601613818565b9250506020613bfc85828601613bb1565b9150509250929050565b600067ffffffffffffffff821115613c2157613c206138ef565b5b613c2a82613655565b9050602081019050919050565b6000613c4a613c4584613c06565b61394f565b905082815260208101848484011115613c6657613c65613974565b5b613c718482856139aa565b509392505050565b600082601f830112613c8e57613c8d61396f565b5b8135613c9e848260208601613c37565b91505092915050565b60008060008060808587031215613cc157613cc06134de565b5b6000613ccf87828801613818565b9450506020613ce087828801613818565b9350506040613cf1878288016135c4565b925050606085013567ffffffffffffffff811115613d1257613d116134e3565b5b613d1e87828801613c79565b91505092959194509250565b60008060008060808587031215613d4457613d436134de565b5b6000613d5287828801613818565b945050602085013567ffffffffffffffff811115613d7357613d726134e3565b5b613d7f878288016139fb565b935050604085013567ffffffffffffffff811115613da057613d9f6134e3565b5b613dac87828801613a29565b925050606085013567ffffffffffffffff811115613dcd57613dcc6134e3565b5b613dd987828801613a29565b91505092959194509250565b60008060408385031215613dfc57613dfb6134de565b5b6000613e0a85828601613818565b9250506020613e1b85828601613818565b9150509250929050565b7f4f776e61626c653a2063616c6c6572206973206e6f7420746865206f776e6572600082015250565b6000613e5b602083613739565b9150613e6682613e25565b602082019050919050565b60006020820190508181036000830152613e8a81613e4e565b9050919050565b7f4e487b7100000000000000000000000000000000000000000000000000000000600052602260045260246000fd5b60006002820490506001821680613ed857607f821691505b60208210811415613eec57613eeb613e91565b5b50919050565b7f4552433732313a20617070726f76616c20746f2063757272656e74206f776e6560008201527f7200000000000000000000000000000000000000000000000000000000000000602082015250565b6000613f4e602183613739565b9150613f5982613ef2565b604082019050919050565b60006020820190508181036000830152613f7d81613f41565b9050919050565b7f4552433732313a20617070726f76652063616c6c6572206973206e6f7420746f60008201527f6b656e206f776e6572206f7220617070726f76656420666f7220616c6c000000602082015250565b6000613fe0603d83613739565b9150613feb82613f84565b604082019050919050565b6000602082019050818103600083015261400f81613fd3565b9050919050565b7f4552433732313a2063616c6c6572206973206e6f7420746f6b656e206f776e6560008201527f72206f7220617070726f76656400000000000000000000000000000000000000602082015250565b6000614072602d83613739565b915061407d82614016565b604082019050919050565b600060208201905081810360008301526140a181614065565b9050919050565b7f455243373231456e756d657261626c653a206f776e657220696e646578206f7560008201527f74206f6620626f756e6473000000000000000000000000000000000000000000602082015250565b6000614104602b83613739565b915061410f826140a8565b604082019050919050565b60006020820190508181036000830152614133816140f7565b9050919050565b7f455243373231456e756d657261626c653a20676c6f62616c20696e646578206f60008201527f7574206f6620626f756e64730000000000000000000000000000000000000000602082015250565b6000614196602c83613739565b91506141a18261413a565b604082019050919050565b600060208201905081810360008301526141c581614189565b9050919050565b7f4e487b7100000000000000000000000000000000000000000000000000000000600052603260045260246000fd5b7f4552433732313a20696e76616c696420746f6b656e2049440000000000000000600082015250565b6000614231601883613739565b915061423c826141fb565b602082019050919050565b6000602082019050818103600083015261426081614224565b9050919050565b7f4552433732313a2061646472657373207a65726f206973206e6f74206120766160008201527f6c6964206f776e65720000000000000000000000000000000000000000000000602082015250565b60006142c3602983613739565b91506142ce82614267565b604082019050919050565b600060208201905081810360008301526142f2816142b6565b9050919050565b7f4552433732313a20676574546f6b656e4f776e657250726f6d70742063616c6c60008201527f6572206973206e6f74206f776e6572206e6f7220617070726f76656400000000602082015250565b6000614355603c83613739565b9150614360826142f9565b604082019050919050565b6000602082019050818103600083015261438481614348565b9050919050565b60006040820190506143a060008301856137d7565b6143ad602083018461386d565b9392505050565b6000815190506143c381613b9a565b92915050565b6000602082840312156143df576143de6134de565b5b60006143ed848285016143b4565b91505092915050565b7f43616c6c2072656769737465724e46542066756e6374696f6e206f662072656e60008201527f744d61726b657420636f6e7472616374206661696c65642e0000000000000000602082015250565b6000614452603883613739565b915061445d826143f6565b604082019050919050565b6000602082019050818103600083015261448181614445565b9050919050565b7f4552433732313a20636c61696d50726f6d70742063616c6c6572206973206e6f60008201527f74206f776e6572206e6f7220617070726f766564000000000000000000000000602082015250565b60006144e4603483613739565b91506144ef82614488565b604082019050919050565b60006020820190508181036000830152614513816144d7565b9050919050565b7f4f776e61626c653a206e6577206f776e657220697320746865207a65726f206160008201527f6464726573730000000000000000000000000000000000000000000000000000602082015250565b6000614576602683613739565b91506145818261451a565b604082019050919050565b600060208201905081810360008301526145a581614569565b9050919050565b7f4552433732313a207472616e736665722066726f6d20696e636f72726563742060008201527f6f776e6572000000000000000000000000000000000000000000000000000000602082015250565b6000614608602583613739565b9150614613826145ac565b604082019050919050565b60006020820190508181036000830152614637816145fb565b9050919050565b7f4552433732313a207472616e7366657220746f20746865207a65726f2061646460008201527f7265737300000000000000000000000000000000000000000000000000000000602082015250565b600061469a602483613739565b91506146a58261463e565b604082019050919050565b600060208201905081810360008301526146c98161468d565b9050919050565b7f4552433732313a20617070726f766520746f2063616c6c657200000000000000600082015250565b6000614706601983613739565b9150614711826146d0565b602082019050919050565b60006020820190508181036000830152614735816146f9565b9050919050565b7f4552433732313a207472616e7366657220746f206e6f6e20455243373231526560008201527f63656976657220696d706c656d656e7465720000000000000000000000000000602082015250565b6000614798603283613739565b91506147a38261473c565b604082019050919050565b600060208201905081810360008301526147c78161478b565b9050919050565b600081905092915050565b60006147e482613606565b6147ee81856147ce565b93506147fe818560208601613622565b80840191505092915050565b600061481682856147d9565b915061482282846147d9565b91508190509392505050565b7f45524337323155524953746f726167653a2055524920736574206f66206e6f6e60008201527f6578697374656e7420746f6b656e000000000000000000000000000000000000602082015250565b600061488a602e83613739565b91506148958261482e565b604082019050919050565b600060208201905081810360008301526148b98161487d565b9050919050565b7f5061757361626c653a206e6f7420706175736564000000000000000000000000600082015250565b60006148f6601483613739565b9150614901826148c0565b602082019050919050565b60006020820190508181036000830152614925816148e9565b9050919050565b7f5061757361626c653a2070617573656400000000000000000000000000000000600082015250565b6000614962601083613739565b915061496d8261492c565b602082019050919050565b6000602082019050818103600083015261499181614955565b9050919050565b600081519050919050565b600082825260208201905092915050565b60006149bf82614998565b6149c981856149a3565b93506149d9818560208601613622565b6149e281613655565b840191505092915050565b6000608082019050614a0260008301876137d7565b614a0f60208301866137d7565b614a1c604083018561386d565b8181036060830152614a2e81846149b4565b905095945050505050565b600081519050614a4881613514565b92915050565b600060208284031215614a6457614a636134de565b5b6000614a7284828501614a39565b91505092915050565b7f455243373231456e756d657261626c653a20636f6e736563757469766520747260008201527f616e7366657273206e6f7420737570706f727465640000000000000000000000602082015250565b6000614ad7603583613739565b9150614ae282614a7b565b604082019050919050565b60006020820190508181036000830152614b0681614aca565b9050919050565b7f4e487b7100000000000000000000000000000000000000000000000000000000600052601260045260246000fd5b7f4552433732313a206d696e7420746f20746865207a65726f2061646472657373600082015250565b6000614b72602083613739565b9150614b7d82614b3c565b602082019050919050565b60006020820190508181036000830152614ba181614b65565b9050919050565b7f4552433732313a20746f6b656e20616c7265616479206d696e74656400000000600082015250565b6000614bde601c83613739565b9150614be982614ba8565b602082019050919050565b60006020820190508181036000830152614c0d81614bd1565b9050919050565b7f4e487b7100000000000000000000000000000000000000000000000000000000600052601160045260246000fd5b6000614c4e826135a3565b9150614c59836135a3565b925082821015614c6c57614c6b614c14565b5b828203905092915050565b6000614c82826135a3565b9150614c8d836135a3565b9250827fffffffffffffffffffffffffffffffffffffffffffffffffffffffffffffffff03821115614cc257614cc1614c14565b5b828201905092915050565b7f4e487b7100000000000000000000000000000000000000000000000000000000600052603160045260246000fdfea26469706673582212201a0e5a438e191019b32e48d5adb845d85614d3e8080f2365d51de0c4246ec7f764736f6c63430008090033",
  "linkReferences": {},
  "deployedLinkReferences": {}
}