{
  "_format": "hh-sol-artifact-1",
  "contractName": "promptNFT",
  "sourceName": "contracts/promptNFT.sol",
  "abi": [
    {
      "inputs": [
        {
          "internalType": "string",
          "name": "name_",
          "type": "string"
        },
        {
          "internalType": "string",
          "name": "symbol_",
          "type": "string"
        },
        {
          "internalType": "address payable",
          "name": "rentMarketContractAddress_",
          "type": "address"
        }
      ],
      "stateMutability": "nonpayable",
      "type": "constructor"
    },
    {
      "anonymous": false,
      "inputs": [
        {
          "indexed": true,
          "internalType": "address",
          "name": "owner",
          "type": "address"
        },
        {
          "indexed": true,
          "internalType": "address",
          "name": "approved",
          "type": "address"
        },
        {
          "indexed": true,
          "internalType": "uint256",
          "name": "tokenId",
          "type": "uint256"
        }
      ],
      "name": "Approval",
      "type": "event"
    },
    {
      "anonymous": false,
      "inputs": [
        {
          "indexed": true,
          "internalType": "address",
          "name": "owner",
          "type": "address"
        },
        {
          "indexed": true,
          "internalType": "address",
          "name": "operator",
          "type": "address"
        },
        {
          "indexed": false,
          "internalType": "bool",
          "name": "approved",
          "type": "bool"
        }
      ],
      "name": "ApprovalForAll",
      "type": "event"
    },
    {
      "anonymous": false,
      "inputs": [
        {
          "indexed": true,
          "internalType": "address",
          "name": "previousOwner",
          "type": "address"
        },
        {
          "indexed": true,
          "internalType": "address",
          "name": "newOwner",
          "type": "address"
        }
      ],
      "name": "OwnershipTransferred",
      "type": "event"
    },
    {
      "anonymous": false,
      "inputs": [
        {
          "indexed": false,
          "internalType": "address",
          "name": "account",
          "type": "address"
        }
      ],
      "name": "Paused",
      "type": "event"
    },
    {
      "anonymous": false,
      "inputs": [
        {
          "indexed": true,
          "internalType": "address",
          "name": "from",
          "type": "address"
        },
        {
          "indexed": true,
          "internalType": "address",
          "name": "to",
          "type": "address"
        },
        {
          "indexed": true,
          "internalType": "uint256",
          "name": "tokenId",
          "type": "uint256"
        }
      ],
      "name": "Transfer",
      "type": "event"
    },
    {
      "anonymous": false,
      "inputs": [
        {
          "indexed": false,
          "internalType": "address",
          "name": "account",
          "type": "address"
        }
      ],
      "name": "Unpaused",
      "type": "event"
    },
    {
      "inputs": [
        {
          "internalType": "address",
          "name": "to",
          "type": "address"
        },
        {
          "internalType": "uint256",
          "name": "tokenId",
          "type": "uint256"
        }
      ],
      "name": "approve",
      "outputs": [],
      "stateMutability": "nonpayable",
      "type": "function"
    },
    {
      "inputs": [
        {
          "internalType": "address",
          "name": "owner",
          "type": "address"
        }
      ],
      "name": "balanceOf",
      "outputs": [
        {
          "internalType": "uint256",
          "name": "",
          "type": "uint256"
        }
      ],
      "stateMutability": "view",
      "type": "function"
    },
    {
      "inputs": [
        {
          "internalType": "uint256",
          "name": "tokenId",
          "type": "uint256"
        }
      ],
      "name": "burn",
      "outputs": [],
      "stateMutability": "nonpayable",
      "type": "function"
    },
    {
      "inputs": [
        {
          "internalType": "uint256",
          "name": "tokenId",
          "type": "uint256"
        },
        {
          "components": [
            {
              "internalType": "string",
              "name": "version",
              "type": "string"
            },
            {
              "internalType": "string",
              "name": "ephemPublicKey",
              "type": "string"
            },
            {
              "internalType": "string",
              "name": "nonce",
              "type": "string"
            },
            {
              "internalType": "string",
              "name": "ciphertext",
              "type": "string"
            }
          ],
          "internalType": "struct promptNFT.encryptData",
          "name": "contractOwnerEncryptData",
          "type": "tuple"
        }
      ],
      "name": "claimContractOwnerPrompt",
      "outputs": [],
      "stateMutability": "nonpayable",
      "type": "function"
    },
    {
      "inputs": [
        {
          "internalType": "uint256",
          "name": "tokenId",
          "type": "uint256"
        },
        {
          "components": [
            {
              "internalType": "string",
              "name": "version",
              "type": "string"
            },
            {
              "internalType": "string",
              "name": "ephemPublicKey",
              "type": "string"
            },
            {
              "internalType": "string",
              "name": "nonce",
              "type": "string"
            },
            {
              "internalType": "string",
              "name": "ciphertext",
              "type": "string"
            }
          ],
          "internalType": "struct promptNFT.encryptData",
          "name": "tokenOwnerEncryptData",
          "type": "tuple"
        }
      ],
      "name": "claimTokenOwnerPrompt",
      "outputs": [],
      "stateMutability": "nonpayable",
      "type": "function"
    },
    {
      "inputs": [
        {
          "internalType": "uint256",
          "name": "tokenId",
          "type": "uint256"
        }
      ],
      "name": "getApproved",
      "outputs": [
        {
          "internalType": "address",
          "name": "",
          "type": "address"
        }
      ],
      "stateMutability": "view",
      "type": "function"
    },
    {
      "inputs": [
        {
          "internalType": "uint256",
          "name": "tokenId",
          "type": "uint256"
        }
      ],
      "name": "getContractOwnerPrompt",
      "outputs": [
        {
          "components": [
            {
              "internalType": "string",
              "name": "version",
              "type": "string"
            },
            {
              "internalType": "string",
              "name": "ephemPublicKey",
              "type": "string"
            },
            {
              "internalType": "string",
              "name": "nonce",
              "type": "string"
            },
            {
              "internalType": "string",
              "name": "ciphertext",
              "type": "string"
            }
          ],
          "internalType": "struct promptNFT.encryptData",
          "name": "",
          "type": "tuple"
        }
      ],
      "stateMutability": "view",
      "type": "function"
    },
    {
      "inputs": [
        {
          "internalType": "uint256",
          "name": "tokenId",
          "type": "uint256"
        }
      ],
      "name": "getTokenOwnerPrompt",
      "outputs": [
        {
          "components": [
            {
              "internalType": "string",
              "name": "version",
              "type": "string"
            },
            {
              "internalType": "string",
              "name": "ephemPublicKey",
              "type": "string"
            },
            {
              "internalType": "string",
              "name": "nonce",
              "type": "string"
            },
            {
              "internalType": "string",
              "name": "ciphertext",
              "type": "string"
            }
          ],
          "internalType": "struct promptNFT.encryptData",
          "name": "",
          "type": "tuple"
        }
      ],
      "stateMutability": "view",
      "type": "function"
    },
    {
      "inputs": [
        {
          "internalType": "address",
          "name": "owner",
          "type": "address"
        },
        {
          "internalType": "address",
          "name": "operator",
          "type": "address"
        }
      ],
      "name": "isApprovedForAll",
      "outputs": [
        {
          "internalType": "bool",
          "name": "",
          "type": "bool"
        }
      ],
      "stateMutability": "view",
      "type": "function"
    },
    {
      "inputs": [],
      "name": "name",
      "outputs": [
        {
          "internalType": "string",
          "name": "",
          "type": "string"
        }
      ],
      "stateMutability": "view",
      "type": "function"
    },
    {
      "inputs": [],
      "name": "owner",
      "outputs": [
        {
          "internalType": "address",
          "name": "",
          "type": "address"
        }
      ],
      "stateMutability": "view",
      "type": "function"
    },
    {
      "inputs": [
        {
          "internalType": "uint256",
          "name": "tokenId",
          "type": "uint256"
        }
      ],
      "name": "ownerOf",
      "outputs": [
        {
          "internalType": "address",
          "name": "",
          "type": "address"
        }
      ],
      "stateMutability": "view",
      "type": "function"
    },
    {
      "inputs": [],
      "name": "pause",
      "outputs": [],
      "stateMutability": "nonpayable",
      "type": "function"
    },
    {
      "inputs": [],
      "name": "paused",
      "outputs": [
        {
          "internalType": "bool",
          "name": "",
          "type": "bool"
        }
      ],
      "stateMutability": "view",
      "type": "function"
    },
    {
      "inputs": [],
      "name": "renounceOwnership",
      "outputs": [],
      "stateMutability": "nonpayable",
      "type": "function"
    },
    {
      "inputs": [
        {
          "internalType": "address",
          "name": "to_",
          "type": "address"
        },
        {
          "internalType": "string",
          "name": "uri_",
          "type": "string"
        },
        {
          "components": [
            {
              "internalType": "string",
              "name": "version",
              "type": "string"
            },
            {
              "internalType": "string",
              "name": "ephemPublicKey",
              "type": "string"
            },
            {
              "internalType": "string",
              "name": "nonce",
              "type": "string"
            },
            {
              "internalType": "string",
              "name": "ciphertext",
              "type": "string"
            }
          ],
          "internalType": "struct promptNFT.encryptData",
          "name": "tokenOwnerEncryptData_",
          "type": "tuple"
        },
        {
          "components": [
            {
              "internalType": "string",
              "name": "version",
              "type": "string"
            },
            {
              "internalType": "string",
              "name": "ephemPublicKey",
              "type": "string"
            },
            {
              "internalType": "string",
              "name": "nonce",
              "type": "string"
            },
            {
              "internalType": "string",
              "name": "ciphertext",
              "type": "string"
            }
          ],
          "internalType": "struct promptNFT.encryptData",
          "name": "contractOwnerEncryptData_",
          "type": "tuple"
        }
      ],
      "name": "safeMint",
      "outputs": [
        {
          "internalType": "uint256",
          "name": "",
          "type": "uint256"
        }
      ],
      "stateMutability": "nonpayable",
      "type": "function"
    },
    {
      "inputs": [
        {
          "internalType": "address",
          "name": "from",
          "type": "address"
        },
        {
          "internalType": "address",
          "name": "to",
          "type": "address"
        },
        {
          "internalType": "uint256",
          "name": "tokenId",
          "type": "uint256"
        }
      ],
      "name": "safeTransferFrom",
      "outputs": [],
      "stateMutability": "nonpayable",
      "type": "function"
    },
    {
      "inputs": [
        {
          "internalType": "address",
          "name": "from",
          "type": "address"
        },
        {
          "internalType": "address",
          "name": "to",
          "type": "address"
        },
        {
          "internalType": "uint256",
          "name": "tokenId",
          "type": "uint256"
        },
        {
          "internalType": "bytes",
          "name": "data",
          "type": "bytes"
        }
      ],
      "name": "safeTransferFrom",
      "outputs": [],
      "stateMutability": "nonpayable",
      "type": "function"
    },
    {
      "inputs": [
        {
          "internalType": "address",
          "name": "operator",
          "type": "address"
        },
        {
          "internalType": "bool",
          "name": "approved",
          "type": "bool"
        }
      ],
      "name": "setApprovalForAll",
      "outputs": [],
      "stateMutability": "nonpayable",
      "type": "function"
    },
    {
      "inputs": [
        {
          "internalType": "bytes4",
          "name": "interfaceId",
          "type": "bytes4"
        }
      ],
      "name": "supportsInterface",
      "outputs": [
        {
          "internalType": "bool",
          "name": "",
          "type": "bool"
        }
      ],
      "stateMutability": "view",
      "type": "function"
    },
    {
      "inputs": [],
      "name": "symbol",
      "outputs": [
        {
          "internalType": "string",
          "name": "",
          "type": "string"
        }
      ],
      "stateMutability": "view",
      "type": "function"
    },
    {
      "inputs": [
        {
          "internalType": "uint256",
          "name": "index",
          "type": "uint256"
        }
      ],
      "name": "tokenByIndex",
      "outputs": [
        {
          "internalType": "uint256",
          "name": "",
          "type": "uint256"
        }
      ],
      "stateMutability": "view",
      "type": "function"
    },
    {
      "inputs": [
        {
          "internalType": "address",
          "name": "owner",
          "type": "address"
        },
        {
          "internalType": "uint256",
          "name": "index",
          "type": "uint256"
        }
      ],
      "name": "tokenOfOwnerByIndex",
      "outputs": [
        {
          "internalType": "uint256",
          "name": "",
          "type": "uint256"
        }
      ],
      "stateMutability": "view",
      "type": "function"
    },
    {
      "inputs": [
        {
          "internalType": "uint256",
          "name": "tokenId",
          "type": "uint256"
        }
      ],
      "name": "tokenURI",
      "outputs": [
        {
          "internalType": "string",
          "name": "",
          "type": "string"
        }
      ],
      "stateMutability": "view",
      "type": "function"
    },
    {
      "inputs": [],
      "name": "totalSupply",
      "outputs": [
        {
          "internalType": "uint256",
          "name": "",
          "type": "uint256"
        }
      ],
      "stateMutability": "view",
      "type": "function"
    },
    {
      "inputs": [
        {
          "internalType": "address",
          "name": "from",
          "type": "address"
        },
        {
          "internalType": "address",
          "name": "to",
          "type": "address"
        },
        {
          "internalType": "uint256",
          "name": "tokenId",
          "type": "uint256"
        }
      ],
      "name": "transferFrom",
      "outputs": [],
      "stateMutability": "nonpayable",
      "type": "function"
    },
    {
      "inputs": [
        {
          "internalType": "address",
          "name": "newOwner",
          "type": "address"
        }
      ],
      "name": "transferOwnership",
      "outputs": [],
      "stateMutability": "nonpayable",
      "type": "function"
    },
    {
      "inputs": [],
      "name": "unpause",
      "outputs": [],
      "stateMutability": "nonpayable",
      "type": "function"
    }
  ],
  "bytecode": "0x60806040523480156200001157600080fd5b5060405162002cf638038062002cf6833981016040819052620000349162000271565b8251839083906200004d906000906020850190620000fe565b50805162000063906001906020840190620000fe565b5050600b805460ff19169055506200007b33620000a4565b600d80546001600160a01b0319166001600160a01b0392909216919091179055506200033b9050565b600b80546001600160a01b03838116610100818102610100600160a81b031985161790945560405193909204169182907f8be0079c531659141344cd1fd0a4f28419497f9722a3daafe3b4186f6b6457e090600090a35050565b8280546200010c90620002fe565b90600052602060002090601f0160209004810192826200013057600085556200017b565b82601f106200014b57805160ff19168380011785556200017b565b828001600101855582156200017b579182015b828111156200017b5782518255916020019190600101906200015e565b50620001899291506200018d565b5090565b5b808211156200018957600081556001016200018e565b634e487b7160e01b600052604160045260246000fd5b600082601f830112620001cc57600080fd5b81516001600160401b0380821115620001e957620001e9620001a4565b604051601f8301601f19908116603f01168101908282118183101715620002145762000214620001a4565b816040528381526020925086838588010111156200023157600080fd5b600091505b8382101562000255578582018301518183018401529082019062000236565b83821115620002675760008385830101525b9695505050505050565b6000806000606084860312156200028757600080fd5b83516001600160401b03808211156200029f57600080fd5b620002ad87838801620001ba565b94506020860151915080821115620002c457600080fd5b50620002d386828701620001ba565b604086015190935090506001600160a01b0381168114620002f357600080fd5b809150509250925092565b600181811c908216806200031357607f821691505b602082108114156200033557634e487b7160e01b600052602260045260246000fd5b50919050565b6129ab806200034b6000396000f3fe608060405234801561001057600080fd5b50600436106101545760003560e01c806301ffc9a71461015957806306e54ceb1461018157806306fdde03146101a1578063081812fc146101b6578063095ea7b3146101d657806318160ddd146101eb57806323b872dd146101fd5780632f745c59146102105780633f4ba83a1461022357806342826a291461022b57806342842e0e1461023e57806342966c68146102515780634f6ccce7146102645780635c975abb146102775780636352211e1461028257806370a0823114610295578063715018a6146102a85780638456cb59146102b05780638da5cb5b146102b857806395d89b41146102c05780639cac21b4146102c8578063a22cb465146102db578063b88d4fde146102ee578063c87b56dd14610301578063dea62bfd14610314578063e985e9c514610327578063ef8cfd111461033a578063f2fde38b1461034d575b600080fd5b61016c610167366004612162565b610360565b60405190151581526020015b60405180910390f35b61019461018f36600461217f565b610371565b60405161017891906121f0565b6101a9610618565b604051610178919061226e565b6101c96101c436600461217f565b6106aa565b6040516101789190612281565b6101e96101e43660046122b1565b6106d1565b005b6008545b604051908152602001610178565b6101e961020b3660046122db565b6107e7565b6101ef61021e3660046122b1565b610819565b6101e96108af565b6101e96102393660046124a2565b6108c1565b6101e961024c3660046122db565b61096d565b6101e961025f36600461217f565b610988565b6101ef61027236600461217f565b6109b9565b600b5460ff1661016c565b6101c961029036600461217f565b610a4c565b6101ef6102a33660046124e8565b610a80565b6101e9610b06565b6101e9610b18565b6101c9610b28565b6101a9610b3c565b6101946102d636600461217f565b610b4b565b6101e96102e9366004612511565b610bf7565b6101e96102fc366004612548565b610c06565b6101a961030f36600461217f565b610c3d565b6101ef6103223660046125c3565b610c48565b61016c61033536600461264f565b610e6e565b6101e96103483660046124a2565b610e9c565b6101e961035b3660046124e8565b610f33565b600061036b82610fa9565b92915050565b610379612055565b33610382610b28565b6001600160a01b0316146103b15760405162461bcd60e51b81526004016103a890612682565b60405180910390fd5b6000828152600f6020526040908190208151608081019092528054829082906103d9906126b7565b80601f0160208091040260200160405190810160405280929190818152602001828054610405906126b7565b80156104525780601f1061042757610100808354040283529160200191610452565b820191906000526020600020905b81548152906001019060200180831161043557829003601f168201915b5050505050815260200160018201805461046b906126b7565b80601f0160208091040260200160405190810160405280929190818152602001828054610497906126b7565b80156104e45780601f106104b9576101008083540402835291602001916104e4565b820191906000526020600020905b8154815290600101906020018083116104c757829003601f168201915b505050505081526020016002820180546104fd906126b7565b80601f0160208091040260200160405190810160405280929190818152602001828054610529906126b7565b80156105765780601f1061054b57610100808354040283529160200191610576565b820191906000526020600020905b81548152906001019060200180831161055957829003601f168201915b5050505050815260200160038201805461058f906126b7565b80601f01602080910402602001604051908101604052809291908181526020018280546105bb906126b7565b80156106085780601f106105dd57610100808354040283529160200191610608565b820191906000526020600020905b8154815290600101906020018083116105eb57829003601f168201915b5050505050815250509050919050565b606060008054610627906126b7565b80601f0160208091040260200160405190810160405280929190818152602001828054610653906126b7565b80156106a05780601f10610675576101008083540402835291602001916106a0565b820191906000526020600020905b81548152906001019060200180831161068357829003601f168201915b5050505050905090565b60006106b582610fce565b506000908152600460205260409020546001600160a01b031690565b60006106dc82610a4c565b9050806001600160a01b0316836001600160a01b0316141561074a5760405162461bcd60e51b815260206004820152602160248201527f4552433732313a20617070726f76616c20746f2063757272656e74206f776e656044820152603960f91b60648201526084016103a8565b336001600160a01b038216148061076657506107668133610e6e565b6107d85760405162461bcd60e51b815260206004820152603d60248201527f4552433732313a20617070726f76652063616c6c6572206973206e6f7420746f60448201527f6b656e206f776e6572206f7220617070726f76656420666f7220616c6c00000060648201526084016103a8565b6107e28383610ff3565b505050565b6107f2335b82611061565b61080e5760405162461bcd60e51b81526004016103a8906126f2565b6107e28383836110bf565b600061082483610a80565b82106108865760405162461bcd60e51b815260206004820152602b60248201527f455243373231456e756d657261626c653a206f776e657220696e646578206f7560448201526a74206f6620626f756e647360a81b60648201526084016103a8565b506001600160a01b03919091166000908152600660209081526040808320938352929052205490565b6108b7611226565b6108bf611255565b565b336108ca610b28565b6001600160a01b0316146108f05760405162461bcd60e51b81526004016103a890612682565b6000828152600f6020908152604090912082518051849361091592849291019061207d565b50602082810151805161092e926001850192019061207d565b506040820151805161094a91600284019160209091019061207d565b506060820151805161096691600384019160209091019061207d565b5050505050565b6107e283838360405180602001604052806000815250610c06565b610991336107ec565b6109ad5760405162461bcd60e51b81526004016103a8906126f2565b6109b6816112a1565b50565b60006109c460085490565b8210610a275760405162461bcd60e51b815260206004820152602c60248201527f455243373231456e756d657261626c653a20676c6f62616c20696e646578206f60448201526b7574206f6620626f756e647360a01b60648201526084016103a8565b60088281548110610a3a57610a3a61273f565b90600052602060002001549050919050565b600080610a5883611332565b90506001600160a01b03811661036b5760405162461bcd60e51b81526004016103a890612755565b60006001600160a01b038216610aea5760405162461bcd60e51b815260206004820152602960248201527f4552433732313a2061646472657373207a65726f206973206e6f7420612076616044820152683634b21037bbb732b960b91b60648201526084016103a8565b506001600160a01b031660009081526003602052604090205490565b610b0e611226565b6108bf600061134d565b610b20611226565b6108bf6113a7565b600b5461010090046001600160a01b031690565b606060018054610627906126b7565b610b53612055565b610b5e335b83611061565b610bcf5760405162461bcd60e51b815260206004820152603c60248201527f4552433732313a20676574546f6b656e4f776e657250726f6d70742063616c6c60448201527b195c881a5cc81b9bdd081bdddb995c881b9bdc88185c1c1c9bdd995960221b60648201526084016103a8565b6000828152600e6020526040908190208151608081019092528054829082906103d9906126b7565b610c023383836113e4565b5050565b610c0f33610b58565b610c2b5760405162461bcd60e51b81526004016103a8906126f2565b610c37848484846114af565b50505050565b606061036b826114e2565b6000610c58600c80546001019055565b6000610c63600c5490565b9050610c6f86826115eb565b610c798186611605565b6000818152600e60209081526040909120855180518793610c9e92849291019061207d565b506020828101518051610cb7926001850192019061207d565b5060408201518051610cd391600284019160209091019061207d565b5060608201518051610cef91600384019160209091019061207d565b5050506000818152600f60209081526040909120845180518693610d1792849291019061207d565b506020828101518051610d30926001850192019061207d565b5060408201518051610d4c91600284019160209091019061207d565b5060608201518051610d6891600384019160209091019061207d565b5050600d546040516317a6b60960e01b815230600482015260248101849052600092506001600160a01b03909116906317a6b60990604401602060405180830381600087803b158015610dba57600080fd5b505af1158015610dce573d6000803e3d6000fd5b505050506040513d601f19601f82011682018060405250810190610df29190612787565b905080610e625760405162461bcd60e51b815260206004820152603860248201527f43616c6c2072656769737465724e46542066756e6374696f6e206f662072656e6044820152773a26b0b935b2ba1031b7b73a3930b1ba103330b4b632b21760411b60648201526084016103a8565b5090505b949350505050565b6001600160a01b03918216600090815260056020908152604080832093909416825291909152205460ff1690565b610ea533610b58565b610f0e5760405162461bcd60e51b815260206004820152603460248201527f4552433732313a20636c61696d50726f6d70742063616c6c6572206973206e6f6044820152731d081bdddb995c881b9bdc88185c1c1c9bdd995960621b60648201526084016103a8565b6000828152600e6020908152604090912082518051849361091592849291019061207d565b610f3b611226565b6001600160a01b038116610fa05760405162461bcd60e51b815260206004820152602660248201527f4f776e61626c653a206e6577206f776e657220697320746865207a65726f206160448201526564647265737360d01b60648201526084016103a8565b6109b68161134d565b60006001600160e01b0319821663780e9d6360e01b148061036b575061036b82611690565b610fd7816116e0565b6109b65760405162461bcd60e51b81526004016103a890612755565b600081815260046020526040902080546001600160a01b0319166001600160a01b038416908117909155819061102882610a4c565b6001600160a01b03167f8c5be1e5ebec7d5bd14f71427d1e84f3dd0314c0f7b2291e5b200ac8c7c3b92560405160405180910390a45050565b60008061106d83610a4c565b9050806001600160a01b0316846001600160a01b0316148061109457506110948185610e6e565b80610e665750836001600160a01b03166110ad846106aa565b6001600160a01b031614949350505050565b826001600160a01b03166110d282610a4c565b6001600160a01b0316146110f85760405162461bcd60e51b81526004016103a8906127a4565b6001600160a01b03821661115a5760405162461bcd60e51b8152602060048201526024808201527f4552433732313a207472616e7366657220746f20746865207a65726f206164646044820152637265737360e01b60648201526084016103a8565b61116783838360016116fd565b826001600160a01b031661117a82610a4c565b6001600160a01b0316146111a05760405162461bcd60e51b81526004016103a8906127a4565b600081815260046020908152604080832080546001600160a01b03199081169091556001600160a01b03878116808652600385528386208054600019019055908716808652838620805460010190558686526002909452828520805490921684179091559051849360008051602061295683398151915291a46107e28383836001611711565b3361122f610b28565b6001600160a01b0316146108bf5760405162461bcd60e51b81526004016103a890612682565b61125d611764565b600b805460ff191690557f5db9ee0a495bf2e6ff9c91a7834c1ba4fdd244a5e8aa4e537bd38aeae4b073aa335b6040516112979190612281565b60405180910390a1565b6112aa816117ad565b6000818152600e60205260408120906112c38282612101565b6112d1600183016000612101565b6112df600283016000612101565b6112ed600383016000612101565b50506000818152600f60205260408120906113088282612101565b611316600183016000612101565b611324600283016000612101565b6107e2600383016000612101565b6000908152600260205260409020546001600160a01b031690565b600b80546001600160a01b03838116610100818102610100600160a81b031985161790945560405193909204169182907f8be0079c531659141344cd1fd0a4f28419497f9722a3daafe3b4186f6b6457e090600090a35050565b6113af6117ed565b600b805460ff191660011790557f62e78cea01bee320cd4e420270b5ea74000d11b0c9f74754ebdbfc544b05a25861128a3390565b816001600160a01b0316836001600160a01b031614156114425760405162461bcd60e51b815260206004820152601960248201527822a9219b99189d1030b8383937bb32903a379031b0b63632b960391b60448201526064016103a8565b6001600160a01b03838116600081815260056020908152604080832094871680845294825291829020805460ff191686151590811790915591519182527f17307eab39ab6107e8899845ad3d59bd9653f200f220920489ca2b5937696c31910160405180910390a3505050565b6114ba8484846110bf565b6114c684848484611833565b610c375760405162461bcd60e51b81526004016103a8906127e9565b60606114ed82610fce565b6000828152600a602052604081208054611506906126b7565b80601f0160208091040260200160405190810160405280929190818152602001828054611532906126b7565b801561157f5780601f106115545761010080835404028352916020019161157f565b820191906000526020600020905b81548152906001019060200180831161156257829003601f168201915b50505050509050600061159d60408051602081019091526000815290565b90508051600014156115b0575092915050565b8151156115e25780826040516020016115ca92919061283b565b60405160208183030381529060405292505050919050565b610e668461193d565b610c028282604051806020016040528060008152506119b1565b61160e826116e0565b6116715760405162461bcd60e51b815260206004820152602e60248201527f45524337323155524953746f726167653a2055524920736574206f66206e6f6e60448201526d32bc34b9ba32b73a103a37b5b2b760911b60648201526084016103a8565b6000828152600a6020908152604090912082516107e29284019061207d565b60006001600160e01b031982166380ac58cd60e01b14806116c157506001600160e01b03198216635b5e139f60e01b145b8061036b57506301ffc9a760e01b6001600160e01b031983161461036b565b6000806116ec83611332565b6001600160a01b0316141592915050565b6117056117ed565b610c37848484846119e4565b6117196117ed565b6000828152600e60205260408120906117328282612101565b611740600183016000612101565b61174e600283016000612101565b61175c600383016000612101565b505050505050565b600b5460ff166108bf5760405162461bcd60e51b815260206004820152601460248201527314185d5cd8589b194e881b9bdd081c185d5cd95960621b60448201526064016103a8565b6117b681611b1d565b6000818152600a6020526040902080546117cf906126b7565b1590506109b6576000818152600a602052604081206109b691612101565b600b5460ff16156108bf5760405162461bcd60e51b815260206004820152601060248201526f14185d5cd8589b194e881c185d5cd95960821b60448201526064016103a8565b60006001600160a01b0384163b1561193557604051630a85bd0160e11b81526001600160a01b0385169063150b7a029061187790339089908890889060040161286a565b602060405180830381600087803b15801561189157600080fd5b505af19250505080156118c1575060408051601f3d908101601f191682019092526118be918101906128a7565b60015b61191b573d8080156118ef576040519150601f19603f3d011682016040523d82523d6000602084013e6118f4565b606091505b5080516119135760405162461bcd60e51b81526004016103a8906127e9565b805181602001fd5b6001600160e01b031916630a85bd0160e11b149050610e66565b506001610e66565b606061194882610fce565b600061195f60408051602081019091526000815290565b9050600081511161197f57604051806020016040528060008152506119aa565b8061198984611bb8565b60405160200161199a92919061283b565b6040516020818303038152906040525b9392505050565b6119bb8383611c54565b6119c86000848484611833565b6107e25760405162461bcd60e51b81526004016103a8906127e9565b6119f084848484611d67565b6001811115611a5f5760405162461bcd60e51b815260206004820152603560248201527f455243373231456e756d657261626c653a20636f6e7365637574697665207472604482015274185b9cd9995c9cc81b9bdd081cdd5c1c1bdc9d1959605a1b60648201526084016103a8565b816001600160a01b038516611abb57611ab681600880546000838152600960205260408120829055600182018355919091527ff3f7a9fe364faab93b216da50a3214154f22a0a2b415b23a84c8169e8b636ee30155565b611ade565b836001600160a01b0316856001600160a01b031614611ade57611ade8582611def565b6001600160a01b038416611afa57611af581611e8c565b610966565b846001600160a01b0316846001600160a01b031614610966576109668482611f3b565b6000611b2882610a4c565b9050611b388160008460016116fd565b611b4182610a4c565b600083815260046020908152604080832080546001600160a01b03199081169091556001600160a01b038516808552600384528285208054600019019055878552600290935281842080549091169055519293508492600080516020612956833981519152908390a4610c02816000846001611711565b60606000611bc583611f7f565b60010190506000816001600160401b03811115611be457611be4612317565b6040519080825280601f01601f191660200182016040528015611c0e576020820181803683370190505b5090508181016020015b600019016f181899199a1a9b1b9c1cb0b131b232b360811b600a86061a8153600a8504945084611c4757611c4c565b611c18565b509392505050565b6001600160a01b038216611caa5760405162461bcd60e51b815260206004820181905260248201527f4552433732313a206d696e7420746f20746865207a65726f206164647265737360448201526064016103a8565b611cb3816116e0565b15611cd05760405162461bcd60e51b81526004016103a8906128c4565b611cde6000838360016116fd565b611ce7816116e0565b15611d045760405162461bcd60e51b81526004016103a8906128c4565b6001600160a01b038216600081815260036020908152604080832080546001019055848352600290915280822080546001600160a01b031916841790555183929190600080516020612956833981519152908290a4610c02600083836001611711565b6001811115610c37576001600160a01b03841615611dad576001600160a01b03841660009081526003602052604081208054839290611da7908490612910565b90915550505b6001600160a01b03831615610c37576001600160a01b03831660009081526003602052604081208054839290611de4908490612927565b909155505050505050565b60006001611dfc84610a80565b611e069190612910565b600083815260076020526040902054909150808214611e59576001600160a01b03841660009081526006602090815260408083208584528252808320548484528184208190558352600790915290208190555b5060009182526007602090815260408084208490556001600160a01b039094168352600681528383209183525290812055565b600854600090611e9e90600190612910565b60008381526009602052604081205460088054939450909284908110611ec657611ec661273f565b906000526020600020015490508060088381548110611ee757611ee761273f565b6000918252602080832090910192909255828152600990915260408082208490558582528120556008805480611f1f57611f1f61293f565b6001900381819060005260206000200160009055905550505050565b6000611f4683610a80565b6001600160a01b039093166000908152600660209081526040808320868452825280832085905593825260079052919091209190915550565b60008072184f03e93ff9f4daa797ed6e38ed64bf6a1f0160401b8310611fbe5772184f03e93ff9f4daa797ed6e38ed64bf6a1f0160401b830492506040015b6904ee2d6d415b85acef8160201b8310611fe8576904ee2d6d415b85acef8160201b830492506020015b662386f26fc10000831061200657662386f26fc10000830492506010015b6305f5e100831061201e576305f5e100830492506008015b612710831061203257612710830492506004015b60648310612044576064830492506002015b600a831061036b5760010192915050565b6040518060800160405280606081526020016060815260200160608152602001606081525090565b828054612089906126b7565b90600052602060002090601f0160209004810192826120ab57600085556120f1565b82601f106120c457805160ff19168380011785556120f1565b828001600101855582156120f1579182015b828111156120f15782518255916020019190600101906120d6565b506120fd929150612137565b5090565b50805461210d906126b7565b6000825580601f1061211d575050565b601f0160209004906000526020600020908101906109b691905b5b808211156120fd5760008155600101612138565b6001600160e01b0319811681146109b657600080fd5b60006020828403121561217457600080fd5b81356119aa8161214c565b60006020828403121561219157600080fd5b5035919050565b60005b838110156121b357818101518382015260200161219b565b83811115610c375750506000910152565b600081518084526121dc816020860160208601612198565b601f01601f19169290920160200192915050565b60208152600082516080602084015261220c60a08401826121c4565b90506020840151601f198085840301604086015261222a83836121c4565b9250604086015191508085840301606086015261224783836121c4565b925060608601519150808584030160808601525061226582826121c4565b95945050505050565b6020815260006119aa60208301846121c4565b6001600160a01b0391909116815260200190565b80356001600160a01b03811681146122ac57600080fd5b919050565b600080604083850312156122c457600080fd5b6122cd83612295565b946020939093013593505050565b6000806000606084860312156122f057600080fd5b6122f984612295565b925061230760208501612295565b9150604084013590509250925092565b634e487b7160e01b600052604160045260246000fd5b604051608081016001600160401b038111828210171561234f5761234f612317565b60405290565b60006001600160401b038084111561236f5761236f612317565b604051601f8501601f19908116603f0116810190828211818310171561239757612397612317565b816040528093508581528686860111156123b057600080fd5b858560208301376000602087830101525050509392505050565b600082601f8301126123db57600080fd5b6119aa83833560208501612355565b6000608082840312156123fc57600080fd5b61240461232d565b905081356001600160401b038082111561241d57600080fd5b612429858386016123ca565b8352602084013591508082111561243f57600080fd5b61244b858386016123ca565b6020840152604084013591508082111561246457600080fd5b612470858386016123ca565b6040840152606084013591508082111561248957600080fd5b50612496848285016123ca565b60608301525092915050565b600080604083850312156124b557600080fd5b8235915060208301356001600160401b038111156124d257600080fd5b6124de858286016123ea565b9150509250929050565b6000602082840312156124fa57600080fd5b6119aa82612295565b80151581146109b657600080fd5b6000806040838503121561252457600080fd5b61252d83612295565b9150602083013561253d81612503565b809150509250929050565b6000806000806080858703121561255e57600080fd5b61256785612295565b935061257560208601612295565b92506040850135915060608501356001600160401b0381111561259757600080fd5b8501601f810187136125a857600080fd5b6125b787823560208401612355565b91505092959194509250565b600080600080608085870312156125d957600080fd5b6125e285612295565b935060208501356001600160401b03808211156125fe57600080fd5b61260a888389016123ca565b9450604087013591508082111561262057600080fd5b61262c888389016123ea565b9350606087013591508082111561264257600080fd5b506125b7878288016123ea565b6000806040838503121561266257600080fd5b61266b83612295565b915061267960208401612295565b90509250929050565b6020808252818101527f4f776e61626c653a2063616c6c6572206973206e6f7420746865206f776e6572604082015260600190565b600181811c908216806126cb57607f821691505b602082108114156126ec57634e487b7160e01b600052602260045260246000fd5b50919050565b6020808252602d908201527f4552433732313a2063616c6c6572206973206e6f7420746f6b656e206f776e6560408201526c1c881bdc88185c1c1c9bdd9959609a1b606082015260800190565b634e487b7160e01b600052603260045260246000fd5b602080825260189082015277115490cdcc8c4e881a5b9d985b1a59081d1bdad95b88125160421b604082015260600190565b60006020828403121561279957600080fd5b81516119aa81612503565b60208082526025908201527f4552433732313a207472616e736665722066726f6d20696e636f72726563742060408201526437bbb732b960d91b606082015260800190565b60208082526032908201527f4552433732313a207472616e7366657220746f206e6f6e20455243373231526560408201527131b2b4bb32b91034b6b83632b6b2b73a32b960711b606082015260800190565b6000835161284d818460208801612198565b835190830190612861818360208801612198565b01949350505050565b6001600160a01b038581168252841660208201526040810183905260806060820181905260009061289d908301846121c4565b9695505050505050565b6000602082840312156128b957600080fd5b81516119aa8161214c565b6020808252601c908201527b115490cdcc8c4e881d1bdad95b88185b1c9958591e481b5a5b9d195960221b604082015260600190565b634e487b7160e01b600052601160045260246000fd5b600082821015612922576129226128fa565b500390565b6000821982111561293a5761293a6128fa565b500190565b634e487b7160e01b600052603160045260246000fdfeddf252ad1be2c89b69c2b068fc378daa952ba7f163c4a11628f55a4df523b3efa26469706673582212201f0a8242336e20f673b958490c6bae26a66dfd220521f8a63fac056ec721ad9364736f6c63430008090033",
  "linkReferences": {},
  "deployedLinkReferences": {}
}