{
  "_format": "hh-sol-artifact-1",
  "contractName": "rentNFT",
  "sourceName": "contracts/rentNFT.sol",
  "abi": [
    {
      "inputs": [
        {
          "internalType": "string",
          "name": "name_",
          "type": "string"
        },
        {
          "internalType": "string",
          "name": "symbol_",
          "type": "string"
        },
        {
          "internalType": "string",
          "name": "baseTokenURI_",
          "type": "string"
        }
      ],
      "stateMutability": "nonpayable",
      "type": "constructor"
    },
    {
      "anonymous": false,
      "inputs": [
        {
          "indexed": true,
          "internalType": "address",
          "name": "owner",
          "type": "address"
        },
        {
          "indexed": true,
          "internalType": "address",
          "name": "approved",
          "type": "address"
        },
        {
          "indexed": true,
          "internalType": "uint256",
          "name": "tokenId",
          "type": "uint256"
        }
      ],
      "name": "Approval",
      "type": "event"
    },
    {
      "anonymous": false,
      "inputs": [
        {
          "indexed": true,
          "internalType": "address",
          "name": "owner",
          "type": "address"
        },
        {
          "indexed": true,
          "internalType": "address",
          "name": "operator",
          "type": "address"
        },
        {
          "indexed": false,
          "internalType": "bool",
          "name": "approved",
          "type": "bool"
        }
      ],
      "name": "ApprovalForAll",
      "type": "event"
    },
    {
      "anonymous": false,
      "inputs": [
        {
          "indexed": false,
          "internalType": "address",
          "name": "account",
          "type": "address"
        }
      ],
      "name": "Paused",
      "type": "event"
    },
    {
      "anonymous": false,
      "inputs": [
        {
          "indexed": true,
          "internalType": "bytes32",
          "name": "role",
          "type": "bytes32"
        },
        {
          "indexed": true,
          "internalType": "bytes32",
          "name": "previousAdminRole",
          "type": "bytes32"
        },
        {
          "indexed": true,
          "internalType": "bytes32",
          "name": "newAdminRole",
          "type": "bytes32"
        }
      ],
      "name": "RoleAdminChanged",
      "type": "event"
    },
    {
      "anonymous": false,
      "inputs": [
        {
          "indexed": true,
          "internalType": "bytes32",
          "name": "role",
          "type": "bytes32"
        },
        {
          "indexed": true,
          "internalType": "address",
          "name": "account",
          "type": "address"
        },
        {
          "indexed": true,
          "internalType": "address",
          "name": "sender",
          "type": "address"
        }
      ],
      "name": "RoleGranted",
      "type": "event"
    },
    {
      "anonymous": false,
      "inputs": [
        {
          "indexed": true,
          "internalType": "bytes32",
          "name": "role",
          "type": "bytes32"
        },
        {
          "indexed": true,
          "internalType": "address",
          "name": "account",
          "type": "address"
        },
        {
          "indexed": true,
          "internalType": "address",
          "name": "sender",
          "type": "address"
        }
      ],
      "name": "RoleRevoked",
      "type": "event"
    },
    {
      "anonymous": false,
      "inputs": [
        {
          "indexed": true,
          "internalType": "address",
          "name": "from",
          "type": "address"
        },
        {
          "indexed": true,
          "internalType": "address",
          "name": "to",
          "type": "address"
        },
        {
          "indexed": true,
          "internalType": "uint256",
          "name": "tokenId",
          "type": "uint256"
        }
      ],
      "name": "Transfer",
      "type": "event"
    },
    {
      "anonymous": false,
      "inputs": [
        {
          "indexed": false,
          "internalType": "address",
          "name": "account",
          "type": "address"
        }
      ],
      "name": "Unpaused",
      "type": "event"
    },
    {
      "inputs": [],
      "name": "DEFAULT_ADMIN_ROLE",
      "outputs": [
        {
          "internalType": "bytes32",
          "name": "",
          "type": "bytes32"
        }
      ],
      "stateMutability": "view",
      "type": "function"
    },
    {
      "inputs": [],
      "name": "MINTER_ROLE",
      "outputs": [
        {
          "internalType": "bytes32",
          "name": "",
          "type": "bytes32"
        }
      ],
      "stateMutability": "view",
      "type": "function"
    },
    {
      "inputs": [],
      "name": "PAUSER_ROLE",
      "outputs": [
        {
          "internalType": "bytes32",
          "name": "",
          "type": "bytes32"
        }
      ],
      "stateMutability": "view",
      "type": "function"
    },
    {
      "inputs": [],
      "name": "REGISTER_ROLE",
      "outputs": [
        {
          "internalType": "bytes32",
          "name": "",
          "type": "bytes32"
        }
      ],
      "stateMutability": "view",
      "type": "function"
    },
    {
      "inputs": [],
      "name": "SETTER_ROLE",
      "outputs": [
        {
          "internalType": "bytes32",
          "name": "",
          "type": "bytes32"
        }
      ],
      "stateMutability": "view",
      "type": "function"
    },
    {
      "inputs": [
        {
          "internalType": "address",
          "name": "to",
          "type": "address"
        },
        {
          "internalType": "uint256",
          "name": "tokenId",
          "type": "uint256"
        }
      ],
      "name": "approve",
      "outputs": [],
      "stateMutability": "nonpayable",
      "type": "function"
    },
    {
      "inputs": [
        {
          "internalType": "address",
          "name": "owner",
          "type": "address"
        }
      ],
      "name": "balanceOf",
      "outputs": [
        {
          "internalType": "uint256",
          "name": "",
          "type": "uint256"
        }
      ],
      "stateMutability": "view",
      "type": "function"
    },
    {
      "inputs": [
        {
          "internalType": "uint256",
          "name": "tokenId",
          "type": "uint256"
        }
      ],
      "name": "burn",
      "outputs": [],
      "stateMutability": "nonpayable",
      "type": "function"
    },
    {
      "inputs": [
        {
          "internalType": "address",
          "name": "registerAddress",
          "type": "address"
        }
      ],
      "name": "checkRegisterRole",
      "outputs": [
        {
          "internalType": "bool",
          "name": "result",
          "type": "bool"
        }
      ],
      "stateMutability": "view",
      "type": "function"
    },
    {
      "inputs": [
        {
          "internalType": "uint256",
          "name": "tokenId",
          "type": "uint256"
        }
      ],
      "name": "getApproved",
      "outputs": [
        {
          "internalType": "address",
          "name": "",
          "type": "address"
        }
      ],
      "stateMutability": "view",
      "type": "function"
    },
    {
      "inputs": [],
      "name": "getBaseURI",
      "outputs": [
        {
          "internalType": "string",
          "name": "",
          "type": "string"
        }
      ],
      "stateMutability": "view",
      "type": "function"
    },
    {
      "inputs": [
        {
          "internalType": "bytes32",
          "name": "role",
          "type": "bytes32"
        }
      ],
      "name": "getRoleAdmin",
      "outputs": [
        {
          "internalType": "bytes32",
          "name": "",
          "type": "bytes32"
        }
      ],
      "stateMutability": "view",
      "type": "function"
    },
    {
      "inputs": [
        {
          "internalType": "bytes32",
          "name": "role",
          "type": "bytes32"
        },
        {
          "internalType": "address",
          "name": "account",
          "type": "address"
        }
      ],
      "name": "grantRole",
      "outputs": [],
      "stateMutability": "nonpayable",
      "type": "function"
    },
    {
      "inputs": [
        {
          "internalType": "bytes32",
          "name": "role",
          "type": "bytes32"
        },
        {
          "internalType": "address",
          "name": "account",
          "type": "address"
        }
      ],
      "name": "hasRole",
      "outputs": [
        {
          "internalType": "bool",
          "name": "",
          "type": "bool"
        }
      ],
      "stateMutability": "view",
      "type": "function"
    },
    {
      "inputs": [
        {
          "internalType": "address",
          "name": "owner",
          "type": "address"
        },
        {
          "internalType": "address",
          "name": "operator",
          "type": "address"
        }
      ],
      "name": "isApprovedForAll",
      "outputs": [
        {
          "internalType": "bool",
          "name": "",
          "type": "bool"
        }
      ],
      "stateMutability": "view",
      "type": "function"
    },
    {
      "inputs": [],
      "name": "name",
      "outputs": [
        {
          "internalType": "string",
          "name": "",
          "type": "string"
        }
      ],
      "stateMutability": "view",
      "type": "function"
    },
    {
      "inputs": [
        {
          "internalType": "uint256",
          "name": "tokenId",
          "type": "uint256"
        }
      ],
      "name": "ownerOf",
      "outputs": [
        {
          "internalType": "address",
          "name": "",
          "type": "address"
        }
      ],
      "stateMutability": "view",
      "type": "function"
    },
    {
      "inputs": [],
      "name": "pause",
      "outputs": [],
      "stateMutability": "nonpayable",
      "type": "function"
    },
    {
      "inputs": [],
      "name": "paused",
      "outputs": [
        {
          "internalType": "bool",
          "name": "",
          "type": "bool"
        }
      ],
      "stateMutability": "view",
      "type": "function"
    },
    {
      "inputs": [
        {
          "internalType": "bytes32",
          "name": "role",
          "type": "bytes32"
        },
        {
          "internalType": "address",
          "name": "account",
          "type": "address"
        }
      ],
      "name": "renounceRole",
      "outputs": [],
      "stateMutability": "nonpayable",
      "type": "function"
    },
    {
      "inputs": [
        {
          "internalType": "bytes32",
          "name": "role",
          "type": "bytes32"
        },
        {
          "internalType": "address",
          "name": "account",
          "type": "address"
        }
      ],
      "name": "revokeRole",
      "outputs": [],
      "stateMutability": "nonpayable",
      "type": "function"
    },
    {
      "inputs": [
        {
          "internalType": "address",
          "name": "to_",
          "type": "address"
        }
      ],
      "name": "safeMint",
      "outputs": [],
      "stateMutability": "nonpayable",
      "type": "function"
    },
    {
      "inputs": [
        {
          "internalType": "address",
          "name": "to_",
          "type": "address"
        },
        {
          "internalType": "uint256",
          "name": "amount_",
          "type": "uint256"
        }
      ],
      "name": "safeMintAmount",
      "outputs": [],
      "stateMutability": "nonpayable",
      "type": "function"
    },
    {
      "inputs": [
        {
          "internalType": "address",
          "name": "from",
          "type": "address"
        },
        {
          "internalType": "address",
          "name": "to",
          "type": "address"
        },
        {
          "internalType": "uint256",
          "name": "tokenId",
          "type": "uint256"
        }
      ],
      "name": "safeTransferFrom",
      "outputs": [],
      "stateMutability": "nonpayable",
      "type": "function"
    },
    {
      "inputs": [
        {
          "internalType": "address",
          "name": "from",
          "type": "address"
        },
        {
          "internalType": "address",
          "name": "to",
          "type": "address"
        },
        {
          "internalType": "uint256",
          "name": "tokenId",
          "type": "uint256"
        },
        {
          "internalType": "bytes",
          "name": "data",
          "type": "bytes"
        }
      ],
      "name": "safeTransferFrom",
      "outputs": [],
      "stateMutability": "nonpayable",
      "type": "function"
    },
    {
      "inputs": [
        {
          "internalType": "address",
          "name": "operator",
          "type": "address"
        },
        {
          "internalType": "bool",
          "name": "approved",
          "type": "bool"
        }
      ],
      "name": "setApprovalForAll",
      "outputs": [],
      "stateMutability": "nonpayable",
      "type": "function"
    },
    {
      "inputs": [
        {
          "internalType": "string",
          "name": "baseTokenURI_",
          "type": "string"
        }
      ],
      "name": "setBaseURI",
      "outputs": [],
      "stateMutability": "nonpayable",
      "type": "function"
    },
    {
      "inputs": [
        {
          "internalType": "bytes4",
          "name": "interfaceId",
          "type": "bytes4"
        }
      ],
      "name": "supportsInterface",
      "outputs": [
        {
          "internalType": "bool",
          "name": "",
          "type": "bool"
        }
      ],
      "stateMutability": "view",
      "type": "function"
    },
    {
      "inputs": [],
      "name": "symbol",
      "outputs": [
        {
          "internalType": "string",
          "name": "",
          "type": "string"
        }
      ],
      "stateMutability": "view",
      "type": "function"
    },
    {
      "inputs": [
        {
          "internalType": "uint256",
          "name": "index",
          "type": "uint256"
        }
      ],
      "name": "tokenByIndex",
      "outputs": [
        {
          "internalType": "uint256",
          "name": "",
          "type": "uint256"
        }
      ],
      "stateMutability": "view",
      "type": "function"
    },
    {
      "inputs": [
        {
          "internalType": "address",
          "name": "owner",
          "type": "address"
        },
        {
          "internalType": "uint256",
          "name": "index",
          "type": "uint256"
        }
      ],
      "name": "tokenOfOwnerByIndex",
      "outputs": [
        {
          "internalType": "uint256",
          "name": "",
          "type": "uint256"
        }
      ],
      "stateMutability": "view",
      "type": "function"
    },
    {
      "inputs": [
        {
          "internalType": "uint256",
          "name": "tokenId",
          "type": "uint256"
        }
      ],
      "name": "tokenURI",
      "outputs": [
        {
          "internalType": "string",
          "name": "",
          "type": "string"
        }
      ],
      "stateMutability": "view",
      "type": "function"
    },
    {
      "inputs": [],
      "name": "totalSupply",
      "outputs": [
        {
          "internalType": "uint256",
          "name": "",
          "type": "uint256"
        }
      ],
      "stateMutability": "view",
      "type": "function"
    },
    {
      "inputs": [
        {
          "internalType": "address",
          "name": "from",
          "type": "address"
        },
        {
          "internalType": "address",
          "name": "to",
          "type": "address"
        },
        {
          "internalType": "uint256",
          "name": "tokenId",
          "type": "uint256"
        }
      ],
      "name": "transferFrom",
      "outputs": [],
      "stateMutability": "nonpayable",
      "type": "function"
    },
    {
      "inputs": [],
      "name": "unpause",
      "outputs": [],
      "stateMutability": "nonpayable",
      "type": "function"
    }
  ],
  "bytecode": "0x60806040523480156200001157600080fd5b5060405162004c8138038062004c81833981810160405281019062000037919062000539565b8282816000908051906020019062000051929190620002ec565b5080600190805190602001906200006a929190620002ec565b5050506000600a60006101000a81548160ff02191690831515021790555080600d9080519060200190620000a0929190620002ec565b50620000b66000801b336200018760201b60201c565b620000e87f65d7a28e3265b37a6474929f336521b332c1681b933f6cb9f3376673440d862a336200018760201b60201c565b6200011a7f9f2df0fed2c77648de5860a4cc508cd0818c85b8b8a1ab4ceeef8d981c8956a6336200018760201b60201c565b6200014c7f61c92169ef077349011ff0b1383c894d86c5f0b41d986366b58a6cf31e93beda336200018760201b60201c565b6200017e7fd1f21ec03a6eb050fba156f5316dad461735df521fb446dd42c5a4728e9c70fe336200018760201b60201c565b50505062000657565b6200019982826200027960201b60201c565b62000275576001600b600084815260200190815260200160002060000160008373ffffffffffffffffffffffffffffffffffffffff1673ffffffffffffffffffffffffffffffffffffffff16815260200190815260200160002060006101000a81548160ff0219169083151502179055506200021a620002e460201b60201c565b73ffffffffffffffffffffffffffffffffffffffff168173ffffffffffffffffffffffffffffffffffffffff16837f2f8788117e7eff1d82e926ec794901d17c78024a50270940304540a733656f0d60405160405180910390a45b5050565b6000600b600084815260200190815260200160002060000160008373ffffffffffffffffffffffffffffffffffffffff1673ffffffffffffffffffffffffffffffffffffffff16815260200190815260200160002060009054906101000a900460ff16905092915050565b600033905090565b828054620002fa9062000621565b90600052602060002090601f0160209004810192826200031e57600085556200036a565b82601f106200033957805160ff19168380011785556200036a565b828001600101855582156200036a579182015b82811115620003695782518255916020019190600101906200034c565b5b5090506200037991906200037d565b5090565b5b80821115620003985760008160009055506001016200037e565b5090565b6000604051905090565b600080fd5b600080fd5b600080fd5b600080fd5b6000601f19601f8301169050919050565b7f4e487b7100000000000000000000000000000000000000000000000000000000600052604160045260246000fd5b6200040582620003ba565b810181811067ffffffffffffffff82111715620004275762000426620003cb565b5b80604052505050565b60006200043c6200039c565b90506200044a8282620003fa565b919050565b600067ffffffffffffffff8211156200046d576200046c620003cb565b5b6200047882620003ba565b9050602081019050919050565b60005b83811015620004a557808201518184015260208101905062000488565b83811115620004b5576000848401525b50505050565b6000620004d2620004cc846200044f565b62000430565b905082815260208101848484011115620004f157620004f0620003b5565b5b620004fe84828562000485565b509392505050565b600082601f8301126200051e576200051d620003b0565b5b815162000530848260208601620004bb565b91505092915050565b600080600060608486031215620005555762000554620003a6565b5b600084015167ffffffffffffffff811115620005765762000575620003ab565b5b620005848682870162000506565b935050602084015167ffffffffffffffff811115620005a857620005a7620003ab565b5b620005b68682870162000506565b925050604084015167ffffffffffffffff811115620005da57620005d9620003ab565b5b620005e88682870162000506565b9150509250925092565b7f4e487b7100000000000000000000000000000000000000000000000000000000600052602260045260246000fd5b600060028204905060018216806200063a57607f821691505b60208210811415620006515762000650620005f2565b5b50919050565b61461a80620006676000396000f3fe608060405234801561001057600080fd5b50600436106102115760003560e01c80635c975abb11610125578063a217fddf116100ad578063c87b56dd1161007c578063c87b56dd146105fe578063d53913931461062e578063d547741f1461064c578063e63ab1e914610668578063e985e9c51461068657610211565b8063a217fddf1461058c578063a22cb465146105aa578063b88d4fde146105c6578063c6890de1146105e257610211565b806374f53317116100f457806374f53317146104f85780638456cb591461051657806391d148541461052057806395d89b4114610550578063a2011b3f1461056e57610211565b80635c975abb1461045c5780636352211e1461047a57806370a08231146104aa578063714c5398146104da57610211565b80632f745c59116101a857806342842e0e1161017757806342842e0e146103a857806342966c68146103c45780634f6ccce7146103e057806355f804b31461041057806358c646021461042c57610211565b80632f745c591461033657806336568abe146103665780633f4ba83a1461038257806340d097c31461038c57610211565b806318160ddd116101e457806318160ddd146102b057806323b872dd146102ce578063248a9ca3146102ea5780632f2ff15d1461031a57610211565b806301ffc9a71461021657806306fdde0314610246578063081812fc14610264578063095ea7b314610294575b600080fd5b610230600480360381019061022b9190613113565b6106b6565b60405161023d919061315b565b60405180910390f35b61024e610730565b60405161025b919061320f565b60405180910390f35b61027e60048036038101906102799190613267565b6107c2565b60405161028b91906132d5565b60405180910390f35b6102ae60048036038101906102a9919061331c565b610808565b005b6102b8610920565b6040516102c5919061336b565b60405180910390f35b6102e860048036038101906102e39190613386565b61092d565b005b61030460048036038101906102ff919061340f565b61098d565b604051610311919061344b565b60405180910390f35b610334600480360381019061032f9190613466565b6109ad565b005b610350600480360381019061034b919061331c565b6109ce565b60405161035d919061336b565b60405180910390f35b610380600480360381019061037b9190613466565b610a73565b005b61038a610af6565b005b6103a660048036038101906103a191906134a6565b610b2b565b005b6103c260048036038101906103bd9190613386565b610b7c565b005b6103de60048036038101906103d99190613267565b610b9c565b005b6103fa60048036038101906103f59190613267565b610bf8565b604051610407919061336b565b60405180910390f35b61042a60048036038101906104259190613608565b610c69565b005b610446600480360381019061044191906134a6565b610cae565b604051610453919061315b565b60405180910390f35b610464610ce1565b604051610471919061315b565b60405180910390f35b610494600480360381019061048f9190613267565b610cf8565b6040516104a191906132d5565b60405180910390f35b6104c460048036038101906104bf91906134a6565b610d7f565b6040516104d1919061336b565b60405180910390f35b6104e2610e37565b6040516104ef919061320f565b60405180910390f35b610500610ec9565b60405161050d919061344b565b60405180910390f35b61051e610eed565b005b61053a60048036038101906105359190613466565b610f22565b604051610547919061315b565b60405180910390f35b610558610f8d565b604051610565919061320f565b60405180910390f35b61057661101f565b604051610583919061344b565b60405180910390f35b610594611043565b6040516105a1919061344b565b60405180910390f35b6105c460048036038101906105bf919061367d565b61104a565b005b6105e060048036038101906105db919061375e565b611060565b005b6105fc60048036038101906105f7919061331c565b6110c2565b005b61061860048036038101906106139190613267565b611133565b604051610625919061320f565b60405180910390f35b61063661119b565b604051610643919061344b565b60405180910390f35b61066660048036038101906106619190613466565b6111bf565b005b6106706111e0565b60405161067d919061344b565b60405180910390f35b6106a0600480360381019061069b91906137e1565b611204565b6040516106ad919061315b565b60405180910390f35b60007f58c64602000000000000000000000000000000000000000000000000000000007bffffffffffffffffffffffffffffffffffffffffffffffffffffffff1916827bffffffffffffffffffffffffffffffffffffffffffffffffffffffff19161480610729575061072882611298565b5b9050919050565b60606000805461073f90613850565b80601f016020809104026020016040519081016040528092919081815260200182805461076b90613850565b80156107b85780601f1061078d576101008083540402835291602001916107b8565b820191906000526020600020905b81548152906001019060200180831161079b57829003601f168201915b5050505050905090565b60006107cd82611312565b6004600083815260200190815260200160002060009054906101000a900473ffffffffffffffffffffffffffffffffffffffff169050919050565b600061081382610cf8565b90508073ffffffffffffffffffffffffffffffffffffffff168373ffffffffffffffffffffffffffffffffffffffff161415610884576040517f08c379a000000000000000000000000000000000000000000000000000000000815260040161087b906138f4565b60405180910390fd5b8073ffffffffffffffffffffffffffffffffffffffff166108a361135d565b73ffffffffffffffffffffffffffffffffffffffff1614806108d257506108d1816108cc61135d565b611204565b5b610911576040517f08c379a000000000000000000000000000000000000000000000000000000000815260040161090890613986565b60405180910390fd5b61091b8383611365565b505050565b6000600880549050905090565b61093e61093861135d565b8261141e565b61097d576040517f08c379a000000000000000000000000000000000000000000000000000000000815260040161097490613a18565b60405180910390fd5b6109888383836114b3565b505050565b6000600b6000838152602001908152602001600020600101549050919050565b6109b68261098d565b6109bf816117ad565b6109c983836117c1565b505050565b60006109d983610d7f565b8210610a1a576040517f08c379a0000000000000000000000000000000000000000000000000000000008152600401610a1190613aaa565b60405180910390fd5b600660008473ffffffffffffffffffffffffffffffffffffffff1673ffffffffffffffffffffffffffffffffffffffff168152602001908152602001600020600083815260200190815260200160002054905092915050565b610a7b61135d565b73ffffffffffffffffffffffffffffffffffffffff168173ffffffffffffffffffffffffffffffffffffffff1614610ae8576040517f08c379a0000000000000000000000000000000000000000000000000000000008152600401610adf90613b3c565b60405180910390fd5b610af282826118a2565b5050565b7f65d7a28e3265b37a6474929f336521b332c1681b933f6cb9f3376673440d862a610b20816117ad565b610b28611984565b50565b7f9f2df0fed2c77648de5860a4cc508cd0818c85b8b8a1ab4ceeef8d981c8956a6610b55816117ad565b610b5f600c6119e7565b6000610b6b600c6119fd565b9050610b778382611a0b565b505050565b610b9783838360405180602001604052806000815250611060565b505050565b610bad610ba761135d565b8261141e565b610bec576040517f08c379a0000000000000000000000000000000000000000000000000000000008152600401610be390613a18565b60405180910390fd5b610bf581611a29565b50565b6000610c02610920565b8210610c43576040517f08c379a0000000000000000000000000000000000000000000000000000000008152600401610c3a90613bce565b60405180910390fd5b60088281548110610c5757610c56613bee565b5b90600052602060002001549050919050565b7f61c92169ef077349011ff0b1383c894d86c5f0b41d986366b58a6cf31e93beda610c93816117ad565b81600d9080519060200190610ca9929190613004565b505050565b6000610cda7fd1f21ec03a6eb050fba156f5316dad461735df521fb446dd42c5a4728e9c70fe83610f22565b9050919050565b6000600a60009054906101000a900460ff16905090565b600080610d0483611b77565b9050600073ffffffffffffffffffffffffffffffffffffffff168173ffffffffffffffffffffffffffffffffffffffff161415610d76576040517f08c379a0000000000000000000000000000000000000000000000000000000008152600401610d6d90613c69565b60405180910390fd5b80915050919050565b60008073ffffffffffffffffffffffffffffffffffffffff168273ffffffffffffffffffffffffffffffffffffffff161415610df0576040517f08c379a0000000000000000000000000000000000000000000000000000000008152600401610de790613cfb565b60405180910390fd5b600360008373ffffffffffffffffffffffffffffffffffffffff1673ffffffffffffffffffffffffffffffffffffffff168152602001908152602001600020549050919050565b6060600d8054610e4690613850565b80601f0160208091040260200160405190810160405280929190818152602001828054610e7290613850565b8015610ebf5780601f10610e9457610100808354040283529160200191610ebf565b820191906000526020600020905b815481529060010190602001808311610ea257829003601f168201915b5050505050905090565b7fd1f21ec03a6eb050fba156f5316dad461735df521fb446dd42c5a4728e9c70fe81565b7f65d7a28e3265b37a6474929f336521b332c1681b933f6cb9f3376673440d862a610f17816117ad565b610f1f611bb4565b50565b6000600b600084815260200190815260200160002060000160008373ffffffffffffffffffffffffffffffffffffffff1673ffffffffffffffffffffffffffffffffffffffff16815260200190815260200160002060009054906101000a900460ff16905092915050565b606060018054610f9c90613850565b80601f0160208091040260200160405190810160405280929190818152602001828054610fc890613850565b80156110155780601f10610fea57610100808354040283529160200191611015565b820191906000526020600020905b815481529060010190602001808311610ff857829003601f168201915b5050505050905090565b7f61c92169ef077349011ff0b1383c894d86c5f0b41d986366b58a6cf31e93beda81565b6000801b81565b61105c61105561135d565b8383611c17565b5050565b61107161106b61135d565b8361141e565b6110b0576040517f08c379a00000000000000000000000000000000000000000000000000000000081526004016110a790613a18565b60405180910390fd5b6110bc84848484611d84565b50505050565b7f9f2df0fed2c77648de5860a4cc508cd0818c85b8b8a1ab4ceeef8d981c8956a66110ec816117ad565b60005b8281101561112d57611101600c6119e7565b600061110d600c6119fd565b90506111198582611a0b565b50808061112590613d4a565b9150506110ef565b50505050565b606061113e82611312565b6000611148611de0565b905060008151116111685760405180602001604052806000815250611193565b8061117284611e72565b604051602001611183929190613dcf565b6040516020818303038152906040525b915050919050565b7f9f2df0fed2c77648de5860a4cc508cd0818c85b8b8a1ab4ceeef8d981c8956a681565b6111c88261098d565b6111d1816117ad565b6111db83836118a2565b505050565b7f65d7a28e3265b37a6474929f336521b332c1681b933f6cb9f3376673440d862a81565b6000600560008473ffffffffffffffffffffffffffffffffffffffff1673ffffffffffffffffffffffffffffffffffffffff16815260200190815260200160002060008373ffffffffffffffffffffffffffffffffffffffff1673ffffffffffffffffffffffffffffffffffffffff16815260200190815260200160002060009054906101000a900460ff16905092915050565b60007f7965db0b000000000000000000000000000000000000000000000000000000007bffffffffffffffffffffffffffffffffffffffffffffffffffffffff1916827bffffffffffffffffffffffffffffffffffffffffffffffffffffffff1916148061130b575061130a82611f4a565b5b9050919050565b61131b81611fc4565b61135a576040517f08c379a000000000000000000000000000000000000000000000000000000000815260040161135190613c69565b60405180910390fd5b50565b600033905090565b816004600083815260200190815260200160002060006101000a81548173ffffffffffffffffffffffffffffffffffffffff021916908373ffffffffffffffffffffffffffffffffffffffff160217905550808273ffffffffffffffffffffffffffffffffffffffff166113d883610cf8565b73ffffffffffffffffffffffffffffffffffffffff167f8c5be1e5ebec7d5bd14f71427d1e84f3dd0314c0f7b2291e5b200ac8c7c3b92560405160405180910390a45050565b60008061142a83610cf8565b90508073ffffffffffffffffffffffffffffffffffffffff168473ffffffffffffffffffffffffffffffffffffffff16148061146c575061146b8185611204565b5b806114aa57508373ffffffffffffffffffffffffffffffffffffffff16611492846107c2565b73ffffffffffffffffffffffffffffffffffffffff16145b91505092915050565b8273ffffffffffffffffffffffffffffffffffffffff166114d382610cf8565b73ffffffffffffffffffffffffffffffffffffffff1614611529576040517f08c379a000000000000000000000000000000000000000000000000000000000815260040161152090613e65565b60405180910390fd5b600073ffffffffffffffffffffffffffffffffffffffff168273ffffffffffffffffffffffffffffffffffffffff161415611599576040517f08c379a000000000000000000000000000000000000000000000000000000000815260040161159090613ef7565b60405180910390fd5b6115a68383836001612005565b8273ffffffffffffffffffffffffffffffffffffffff166115c682610cf8565b73ffffffffffffffffffffffffffffffffffffffff161461161c576040517f08c379a000000000000000000000000000000000000000000000000000000000815260040161161390613e65565b60405180910390fd5b6004600082815260200190815260200160002060006101000a81549073ffffffffffffffffffffffffffffffffffffffff02191690556001600360008573ffffffffffffffffffffffffffffffffffffffff1673ffffffffffffffffffffffffffffffffffffffff168152602001908152602001600020600082825403925050819055506001600360008473ffffffffffffffffffffffffffffffffffffffff1673ffffffffffffffffffffffffffffffffffffffff16815260200190815260200160002060008282540192505081905550816002600083815260200190815260200160002060006101000a81548173ffffffffffffffffffffffffffffffffffffffff021916908373ffffffffffffffffffffffffffffffffffffffff160217905550808273ffffffffffffffffffffffffffffffffffffffff168473ffffffffffffffffffffffffffffffffffffffff167fddf252ad1be2c89b69c2b068fc378daa952ba7f163c4a11628f55a4df523b3ef60405160405180910390a46117a8838383600161201f565b505050565b6117be816117b961135d565b612025565b50565b6117cb8282610f22565b61189e576001600b600084815260200190815260200160002060000160008373ffffffffffffffffffffffffffffffffffffffff1673ffffffffffffffffffffffffffffffffffffffff16815260200190815260200160002060006101000a81548160ff02191690831515021790555061184361135d565b73ffffffffffffffffffffffffffffffffffffffff168173ffffffffffffffffffffffffffffffffffffffff16837f2f8788117e7eff1d82e926ec794901d17c78024a50270940304540a733656f0d60405160405180910390a45b5050565b6118ac8282610f22565b15611980576000600b600084815260200190815260200160002060000160008373ffffffffffffffffffffffffffffffffffffffff1673ffffffffffffffffffffffffffffffffffffffff16815260200190815260200160002060006101000a81548160ff02191690831515021790555061192561135d565b73ffffffffffffffffffffffffffffffffffffffff168173ffffffffffffffffffffffffffffffffffffffff16837ff6391f5c32d9c69d2a47ea670b442974b53935d1edc7fd64eb21e047a839171b60405160405180910390a45b5050565b61198c6120aa565b6000600a60006101000a81548160ff0219169083151502179055507f5db9ee0a495bf2e6ff9c91a7834c1ba4fdd244a5e8aa4e537bd38aeae4b073aa6119d061135d565b6040516119dd91906132d5565b60405180910390a1565b6001816000016000828254019250508190555050565b600081600001549050919050565b611a258282604051806020016040528060008152506120f3565b5050565b6000611a3482610cf8565b9050611a44816000846001612005565b611a4d82610cf8565b90506004600083815260200190815260200160002060006101000a81549073ffffffffffffffffffffffffffffffffffffffff02191690556001600360008373ffffffffffffffffffffffffffffffffffffffff1673ffffffffffffffffffffffffffffffffffffffff168152602001908152602001600020600082825403925050819055506002600083815260200190815260200160002060006101000a81549073ffffffffffffffffffffffffffffffffffffffff021916905581600073ffffffffffffffffffffffffffffffffffffffff168273ffffffffffffffffffffffffffffffffffffffff167fddf252ad1be2c89b69c2b068fc378daa952ba7f163c4a11628f55a4df523b3ef60405160405180910390a4611b7381600084600161201f565b5050565b60006002600083815260200190815260200160002060009054906101000a900473ffffffffffffffffffffffffffffffffffffffff169050919050565b611bbc61214e565b6001600a60006101000a81548160ff0219169083151502179055507f62e78cea01bee320cd4e420270b5ea74000d11b0c9f74754ebdbfc544b05a258611c0061135d565b604051611c0d91906132d5565b60405180910390a1565b8173ffffffffffffffffffffffffffffffffffffffff168373ffffffffffffffffffffffffffffffffffffffff161415611c86576040517f08c379a0000000000000000000000000000000000000000000000000000000008152600401611c7d90613f63565b60405180910390fd5b80600560008573ffffffffffffffffffffffffffffffffffffffff1673ffffffffffffffffffffffffffffffffffffffff16815260200190815260200160002060008473ffffffffffffffffffffffffffffffffffffffff1673ffffffffffffffffffffffffffffffffffffffff16815260200190815260200160002060006101000a81548160ff0219169083151502179055508173ffffffffffffffffffffffffffffffffffffffff168373ffffffffffffffffffffffffffffffffffffffff167f17307eab39ab6107e8899845ad3d59bd9653f200f220920489ca2b5937696c3183604051611d77919061315b565b60405180910390a3505050565b611d8f8484846114b3565b611d9b84848484612198565b611dda576040517f08c379a0000000000000000000000000000000000000000000000000000000008152600401611dd190613ff5565b60405180910390fd5b50505050565b6060600d8054611def90613850565b80601f0160208091040260200160405190810160405280929190818152602001828054611e1b90613850565b8015611e685780601f10611e3d57610100808354040283529160200191611e68565b820191906000526020600020905b815481529060010190602001808311611e4b57829003601f168201915b5050505050905090565b606060006001611e818461232f565b01905060008167ffffffffffffffff811115611ea057611e9f6134dd565b5b6040519080825280601f01601f191660200182016040528015611ed25781602001600182028036833780820191505090505b509050600082602001820190505b600115611f3f578080600190039150507f3031323334353637383961626364656600000000000000000000000000000000600a86061a8153600a8581611f2957611f28614015565b5b0494506000851415611f3a57611f3f565b611ee0565b819350505050919050565b60007f780e9d63000000000000000000000000000000000000000000000000000000007bffffffffffffffffffffffffffffffffffffffffffffffffffffffff1916827bffffffffffffffffffffffffffffffffffffffffffffffffffffffff19161480611fbd5750611fbc82612482565b5b9050919050565b60008073ffffffffffffffffffffffffffffffffffffffff16611fe683611b77565b73ffffffffffffffffffffffffffffffffffffffff1614159050919050565b61200d61214e565b61201984848484612564565b50505050565b50505050565b61202f8282610f22565b6120a65761203c816126c4565b61204a8360001c60206126f1565b60405160200161205b9291906140dc565b6040516020818303038152906040526040517f08c379a000000000000000000000000000000000000000000000000000000000815260040161209d919061320f565b60405180910390fd5b5050565b6120b2610ce1565b6120f1576040517f08c379a00000000000000000000000000000000000000000000000000000000081526004016120e890614162565b60405180910390fd5b565b6120fd838361292d565b61210a6000848484612198565b612149576040517f08c379a000000000000000000000000000000000000000000000000000000000815260040161214090613ff5565b60405180910390fd5b505050565b612156610ce1565b15612196576040517f08c379a000000000000000000000000000000000000000000000000000000000815260040161218d906141ce565b60405180910390fd5b565b60006121b98473ffffffffffffffffffffffffffffffffffffffff16612b4b565b15612322578373ffffffffffffffffffffffffffffffffffffffff1663150b7a026121e261135d565b8786866040518563ffffffff1660e01b81526004016122049493929190614243565b602060405180830381600087803b15801561221e57600080fd5b505af192505050801561224f57506040513d601f19601f8201168201806040525081019061224c91906142a4565b60015b6122d2573d806000811461227f576040519150601f19603f3d011682016040523d82523d6000602084013e612284565b606091505b506000815114156122ca576040517f08c379a00000000000000000000000000000000000000000000000000000000081526004016122c190613ff5565b60405180910390fd5b805181602001fd5b63150b7a0260e01b7bffffffffffffffffffffffffffffffffffffffffffffffffffffffff1916817bffffffffffffffffffffffffffffffffffffffffffffffffffffffff191614915050612327565b600190505b949350505050565b600080600090507a184f03e93ff9f4daa797ed6e38ed64bf6a1f010000000000000000831061238d577a184f03e93ff9f4daa797ed6e38ed64bf6a1f010000000000000000838161238357612382614015565b5b0492506040810190505b6d04ee2d6d415b85acef810000000083106123ca576d04ee2d6d415b85acef810000000083816123c0576123bf614015565b5b0492506020810190505b662386f26fc1000083106123f957662386f26fc1000083816123ef576123ee614015565b5b0492506010810190505b6305f5e1008310612422576305f5e100838161241857612417614015565b5b0492506008810190505b612710831061244757612710838161243d5761243c614015565b5b0492506004810190505b6064831061246a57606483816124605761245f614015565b5b0492506002810190505b600a8310612479576001810190505b80915050919050565b60007f80ac58cd000000000000000000000000000000000000000000000000000000007bffffffffffffffffffffffffffffffffffffffffffffffffffffffff1916827bffffffffffffffffffffffffffffffffffffffffffffffffffffffff1916148061254d57507f5b5e139f000000000000000000000000000000000000000000000000000000007bffffffffffffffffffffffffffffffffffffffffffffffffffffffff1916827bffffffffffffffffffffffffffffffffffffffffffffffffffffffff1916145b8061255d575061255c82612b6e565b5b9050919050565b61257084848484612bd8565b60018111156125b4576040517f08c379a00000000000000000000000000000000000000000000000000000000081526004016125ab90614343565b60405180910390fd5b6000829050600073ffffffffffffffffffffffffffffffffffffffff168573ffffffffffffffffffffffffffffffffffffffff1614156125fc576125f781612cfe565b61263b565b8373ffffffffffffffffffffffffffffffffffffffff168573ffffffffffffffffffffffffffffffffffffffff161461263a576126398582612d47565b5b5b600073ffffffffffffffffffffffffffffffffffffffff168473ffffffffffffffffffffffffffffffffffffffff16141561267e5761267981612eb4565b6126bd565b8473ffffffffffffffffffffffffffffffffffffffff168473ffffffffffffffffffffffffffffffffffffffff16146126bc576126bb8482612f85565b5b5b5050505050565b60606126ea8273ffffffffffffffffffffffffffffffffffffffff16601460ff166126f1565b9050919050565b6060600060028360026127049190614363565b61270e91906143bd565b67ffffffffffffffff811115612727576127266134dd565b5b6040519080825280601f01601f1916602001820160405280156127595781602001600182028036833780820191505090505b5090507f30000000000000000000000000000000000000000000000000000000000000008160008151811061279157612790613bee565b5b60200101907effffffffffffffffffffffffffffffffffffffffffffffffffffffffffffff1916908160001a9053507f7800000000000000000000000000000000000000000000000000000000000000816001815181106127f5576127f4613bee565b5b60200101907effffffffffffffffffffffffffffffffffffffffffffffffffffffffffffff1916908160001a905350600060018460026128359190614363565b61283f91906143bd565b90505b60018111156128df577f3031323334353637383961626364656600000000000000000000000000000000600f86166010811061288157612880613bee565b5b1a60f81b82828151811061289857612897613bee565b5b60200101907effffffffffffffffffffffffffffffffffffffffffffffffffffffffffffff1916908160001a905350600485901c9450806128d890614413565b9050612842565b5060008414612923576040517f08c379a000000000000000000000000000000000000000000000000000000000815260040161291a90614489565b60405180910390fd5b8091505092915050565b600073ffffffffffffffffffffffffffffffffffffffff168273ffffffffffffffffffffffffffffffffffffffff16141561299d576040517f08c379a0000000000000000000000000000000000000000000000000000000008152600401612994906144f5565b60405180910390fd5b6129a681611fc4565b156129e6576040517f08c379a00000000000000000000000000000000000000000000000000000000081526004016129dd90614561565b60405180910390fd5b6129f4600083836001612005565b6129fd81611fc4565b15612a3d576040517f08c379a0000000000000000000000000000000000000000000000000000000008152600401612a3490614561565b60405180910390fd5b6001600360008473ffffffffffffffffffffffffffffffffffffffff1673ffffffffffffffffffffffffffffffffffffffff16815260200190815260200160002060008282540192505081905550816002600083815260200190815260200160002060006101000a81548173ffffffffffffffffffffffffffffffffffffffff021916908373ffffffffffffffffffffffffffffffffffffffff160217905550808273ffffffffffffffffffffffffffffffffffffffff16600073ffffffffffffffffffffffffffffffffffffffff167fddf252ad1be2c89b69c2b068fc378daa952ba7f163c4a11628f55a4df523b3ef60405160405180910390a4612b4760008383600161201f565b5050565b6000808273ffffffffffffffffffffffffffffffffffffffff163b119050919050565b60007f01ffc9a7000000000000000000000000000000000000000000000000000000007bffffffffffffffffffffffffffffffffffffffffffffffffffffffff1916827bffffffffffffffffffffffffffffffffffffffffffffffffffffffff1916149050919050565b6001811115612cf857600073ffffffffffffffffffffffffffffffffffffffff168473ffffffffffffffffffffffffffffffffffffffff1614612c6c5780600360008673ffffffffffffffffffffffffffffffffffffffff1673ffffffffffffffffffffffffffffffffffffffff1681526020019081526020016000206000828254612c649190614581565b925050819055505b600073ffffffffffffffffffffffffffffffffffffffff168373ffffffffffffffffffffffffffffffffffffffff1614612cf75780600360008573ffffffffffffffffffffffffffffffffffffffff1673ffffffffffffffffffffffffffffffffffffffff1681526020019081526020016000206000828254612cef91906143bd565b925050819055505b5b50505050565b6008805490506009600083815260200190815260200160002081905550600881908060018154018082558091505060019003906000526020600020016000909190919091505550565b60006001612d5484610d7f565b612d5e9190614581565b9050600060076000848152602001908152602001600020549050818114612e43576000600660008673ffffffffffffffffffffffffffffffffffffffff1673ffffffffffffffffffffffffffffffffffffffff168152602001908152602001600020600084815260200190815260200160002054905080600660008773ffffffffffffffffffffffffffffffffffffffff1673ffffffffffffffffffffffffffffffffffffffff168152602001908152602001600020600084815260200190815260200160002081905550816007600083815260200190815260200160002081905550505b6007600084815260200190815260200160002060009055600660008573ffffffffffffffffffffffffffffffffffffffff1673ffffffffffffffffffffffffffffffffffffffff16815260200190815260200160002060008381526020019081526020016000206000905550505050565b60006001600880549050612ec89190614581565b9050600060096000848152602001908152602001600020549050600060088381548110612ef857612ef7613bee565b5b906000526020600020015490508060088381548110612f1a57612f19613bee565b5b906000526020600020018190555081600960008381526020019081526020016000208190555060096000858152602001908152602001600020600090556008805480612f6957612f686145b5565b5b6001900381819060005260206000200160009055905550505050565b6000612f9083610d7f565b905081600660008573ffffffffffffffffffffffffffffffffffffffff1673ffffffffffffffffffffffffffffffffffffffff168152602001908152602001600020600083815260200190815260200160002081905550806007600084815260200190815260200160002081905550505050565b82805461301090613850565b90600052602060002090601f0160209004810192826130325760008555613079565b82601f1061304b57805160ff1916838001178555613079565b82800160010185558215613079579182015b8281111561307857825182559160200191906001019061305d565b5b509050613086919061308a565b5090565b5b808211156130a357600081600090555060010161308b565b5090565b6000604051905090565b600080fd5b600080fd5b60007fffffffff0000000000000000000000000000000000000000000000000000000082169050919050565b6130f0816130bb565b81146130fb57600080fd5b50565b60008135905061310d816130e7565b92915050565b600060208284031215613129576131286130b1565b5b6000613137848285016130fe565b91505092915050565b60008115159050919050565b61315581613140565b82525050565b6000602082019050613170600083018461314c565b92915050565b600081519050919050565b600082825260208201905092915050565b60005b838110156131b0578082015181840152602081019050613195565b838111156131bf576000848401525b50505050565b6000601f19601f8301169050919050565b60006131e182613176565b6131eb8185613181565b93506131fb818560208601613192565b613204816131c5565b840191505092915050565b6000602082019050818103600083015261322981846131d6565b905092915050565b6000819050919050565b61324481613231565b811461324f57600080fd5b50565b6000813590506132618161323b565b92915050565b60006020828403121561327d5761327c6130b1565b5b600061328b84828501613252565b91505092915050565b600073ffffffffffffffffffffffffffffffffffffffff82169050919050565b60006132bf82613294565b9050919050565b6132cf816132b4565b82525050565b60006020820190506132ea60008301846132c6565b92915050565b6132f9816132b4565b811461330457600080fd5b50565b600081359050613316816132f0565b92915050565b60008060408385031215613333576133326130b1565b5b600061334185828601613307565b925050602061335285828601613252565b9150509250929050565b61336581613231565b82525050565b6000602082019050613380600083018461335c565b92915050565b60008060006060848603121561339f5761339e6130b1565b5b60006133ad86828701613307565b93505060206133be86828701613307565b92505060406133cf86828701613252565b9150509250925092565b6000819050919050565b6133ec816133d9565b81146133f757600080fd5b50565b600081359050613409816133e3565b92915050565b600060208284031215613425576134246130b1565b5b6000613433848285016133fa565b91505092915050565b613445816133d9565b82525050565b6000602082019050613460600083018461343c565b92915050565b6000806040838503121561347d5761347c6130b1565b5b600061348b858286016133fa565b925050602061349c85828601613307565b9150509250929050565b6000602082840312156134bc576134bb6130b1565b5b60006134ca84828501613307565b91505092915050565b600080fd5b600080fd5b7f4e487b7100000000000000000000000000000000000000000000000000000000600052604160045260246000fd5b613515826131c5565b810181811067ffffffffffffffff82111715613534576135336134dd565b5b80604052505050565b60006135476130a7565b9050613553828261350c565b919050565b600067ffffffffffffffff821115613573576135726134dd565b5b61357c826131c5565b9050602081019050919050565b82818337600083830152505050565b60006135ab6135a684613558565b61353d565b9050828152602081018484840111156135c7576135c66134d8565b5b6135d2848285613589565b509392505050565b600082601f8301126135ef576135ee6134d3565b5b81356135ff848260208601613598565b91505092915050565b60006020828403121561361e5761361d6130b1565b5b600082013567ffffffffffffffff81111561363c5761363b6130b6565b5b613648848285016135da565b91505092915050565b61365a81613140565b811461366557600080fd5b50565b60008135905061367781613651565b92915050565b60008060408385031215613694576136936130b1565b5b60006136a285828601613307565b92505060206136b385828601613668565b9150509250929050565b600067ffffffffffffffff8211156136d8576136d76134dd565b5b6136e1826131c5565b9050602081019050919050565b60006137016136fc846136bd565b61353d565b90508281526020810184848401111561371d5761371c6134d8565b5b613728848285613589565b509392505050565b600082601f830112613745576137446134d3565b5b81356137558482602086016136ee565b91505092915050565b60008060008060808587031215613778576137776130b1565b5b600061378687828801613307565b945050602061379787828801613307565b93505060406137a887828801613252565b925050606085013567ffffffffffffffff8111156137c9576137c86130b6565b5b6137d587828801613730565b91505092959194509250565b600080604083850312156137f8576137f76130b1565b5b600061380685828601613307565b925050602061381785828601613307565b9150509250929050565b7f4e487b7100000000000000000000000000000000000000000000000000000000600052602260045260246000fd5b6000600282049050600182168061386857607f821691505b6020821081141561387c5761387b613821565b5b50919050565b7f4552433732313a20617070726f76616c20746f2063757272656e74206f776e6560008201527f7200000000000000000000000000000000000000000000000000000000000000602082015250565b60006138de602183613181565b91506138e982613882565b604082019050919050565b6000602082019050818103600083015261390d816138d1565b9050919050565b7f4552433732313a20617070726f76652063616c6c6572206973206e6f7420746f60008201527f6b656e206f776e6572206f7220617070726f76656420666f7220616c6c000000602082015250565b6000613970603d83613181565b915061397b82613914565b604082019050919050565b6000602082019050818103600083015261399f81613963565b9050919050565b7f4552433732313a2063616c6c6572206973206e6f7420746f6b656e206f776e6560008201527f72206f7220617070726f76656400000000000000000000000000000000000000602082015250565b6000613a02602d83613181565b9150613a0d826139a6565b604082019050919050565b60006020820190508181036000830152613a31816139f5565b9050919050565b7f455243373231456e756d657261626c653a206f776e657220696e646578206f7560008201527f74206f6620626f756e6473000000000000000000000000000000000000000000602082015250565b6000613a94602b83613181565b9150613a9f82613a38565b604082019050919050565b60006020820190508181036000830152613ac381613a87565b9050919050565b7f416363657373436f6e74726f6c3a2063616e206f6e6c792072656e6f756e636560008201527f20726f6c657320666f722073656c660000000000000000000000000000000000602082015250565b6000613b26602f83613181565b9150613b3182613aca565b604082019050919050565b60006020820190508181036000830152613b5581613b19565b9050919050565b7f455243373231456e756d657261626c653a20676c6f62616c20696e646578206f60008201527f7574206f6620626f756e64730000000000000000000000000000000000000000602082015250565b6000613bb8602c83613181565b9150613bc382613b5c565b604082019050919050565b60006020820190508181036000830152613be781613bab565b9050919050565b7f4e487b7100000000000000000000000000000000000000000000000000000000600052603260045260246000fd5b7f4552433732313a20696e76616c696420746f6b656e2049440000000000000000600082015250565b6000613c53601883613181565b9150613c5e82613c1d565b602082019050919050565b60006020820190508181036000830152613c8281613c46565b9050919050565b7f4552433732313a2061646472657373207a65726f206973206e6f74206120766160008201527f6c6964206f776e65720000000000000000000000000000000000000000000000602082015250565b6000613ce5602983613181565b9150613cf082613c89565b604082019050919050565b60006020820190508181036000830152613d1481613cd8565b9050919050565b7f4e487b7100000000000000000000000000000000000000000000000000000000600052601160045260246000fd5b6000613d5582613231565b91507fffffffffffffffffffffffffffffffffffffffffffffffffffffffffffffffff821415613d8857613d87613d1b565b5b600182019050919050565b600081905092915050565b6000613da982613176565b613db38185613d93565b9350613dc3818560208601613192565b80840191505092915050565b6000613ddb8285613d9e565b9150613de78284613d9e565b91508190509392505050565b7f4552433732313a207472616e736665722066726f6d20696e636f72726563742060008201527f6f776e6572000000000000000000000000000000000000000000000000000000602082015250565b6000613e4f602583613181565b9150613e5a82613df3565b604082019050919050565b60006020820190508181036000830152613e7e81613e42565b9050919050565b7f4552433732313a207472616e7366657220746f20746865207a65726f2061646460008201527f7265737300000000000000000000000000000000000000000000000000000000602082015250565b6000613ee1602483613181565b9150613eec82613e85565b604082019050919050565b60006020820190508181036000830152613f1081613ed4565b9050919050565b7f4552433732313a20617070726f766520746f2063616c6c657200000000000000600082015250565b6000613f4d601983613181565b9150613f5882613f17565b602082019050919050565b60006020820190508181036000830152613f7c81613f40565b9050919050565b7f4552433732313a207472616e7366657220746f206e6f6e20455243373231526560008201527f63656976657220696d706c656d656e7465720000000000000000000000000000602082015250565b6000613fdf603283613181565b9150613fea82613f83565b604082019050919050565b6000602082019050818103600083015261400e81613fd2565b9050919050565b7f4e487b7100000000000000000000000000000000000000000000000000000000600052601260045260246000fd5b7f416363657373436f6e74726f6c3a206163636f756e7420000000000000000000600082015250565b600061407a601783613d93565b915061408582614044565b601782019050919050565b7f206973206d697373696e6720726f6c6520000000000000000000000000000000600082015250565b60006140c6601183613d93565b91506140d182614090565b601182019050919050565b60006140e78261406d565b91506140f38285613d9e565b91506140fe826140b9565b915061410a8284613d9e565b91508190509392505050565b7f5061757361626c653a206e6f7420706175736564000000000000000000000000600082015250565b600061414c601483613181565b915061415782614116565b602082019050919050565b6000602082019050818103600083015261417b8161413f565b9050919050565b7f5061757361626c653a2070617573656400000000000000000000000000000000600082015250565b60006141b8601083613181565b91506141c382614182565b602082019050919050565b600060208201905081810360008301526141e7816141ab565b9050919050565b600081519050919050565b600082825260208201905092915050565b6000614215826141ee565b61421f81856141f9565b935061422f818560208601613192565b614238816131c5565b840191505092915050565b600060808201905061425860008301876132c6565b61426560208301866132c6565b614272604083018561335c565b8181036060830152614284818461420a565b905095945050505050565b60008151905061429e816130e7565b92915050565b6000602082840312156142ba576142b96130b1565b5b60006142c88482850161428f565b91505092915050565b7f455243373231456e756d657261626c653a20636f6e736563757469766520747260008201527f616e7366657273206e6f7420737570706f727465640000000000000000000000602082015250565b600061432d603583613181565b9150614338826142d1565b604082019050919050565b6000602082019050818103600083015261435c81614320565b9050919050565b600061436e82613231565b915061437983613231565b9250817fffffffffffffffffffffffffffffffffffffffffffffffffffffffffffffffff04831182151516156143b2576143b1613d1b565b5b828202905092915050565b60006143c882613231565b91506143d383613231565b9250827fffffffffffffffffffffffffffffffffffffffffffffffffffffffffffffffff0382111561440857614407613d1b565b5b828201905092915050565b600061441e82613231565b9150600082141561443257614431613d1b565b5b600182039050919050565b7f537472696e67733a20686578206c656e67746820696e73756666696369656e74600082015250565b6000614473602083613181565b915061447e8261443d565b602082019050919050565b600060208201905081810360008301526144a281614466565b9050919050565b7f4552433732313a206d696e7420746f20746865207a65726f2061646472657373600082015250565b60006144df602083613181565b91506144ea826144a9565b602082019050919050565b6000602082019050818103600083015261450e816144d2565b9050919050565b7f4552433732313a20746f6b656e20616c7265616479206d696e74656400000000600082015250565b600061454b601c83613181565b915061455682614515565b602082019050919050565b6000602082019050818103600083015261457a8161453e565b9050919050565b600061458c82613231565b915061459783613231565b9250828210156145aa576145a9613d1b565b5b828203905092915050565b7f4e487b7100000000000000000000000000000000000000000000000000000000600052603160045260246000fdfea2646970667358221220cf20600cf709ec005b11f6ddbb535f05cc1bd276f7fbe756a7befd6560c9bc3e64736f6c63430008090033",
  "linkReferences": {},
  "deployedLinkReferences": {}
}